{
	"contracts/oracle/UniswapV2Oracle_pancake.sol": {
		"UniswapV2Oracle": {
			"abi": [
				{
					"anonymous": false,
					"inputs": [
						{
							"indexed": true,
							"internalType": "address",
							"name": "previousOwner",
							"type": "address"
						},
						{
							"indexed": true,
							"internalType": "address",
							"name": "newOwner",
							"type": "address"
						}
					],
					"name": "OwnershipTransferred",
					"type": "event"
				},
				{
					"inputs": [],
					"name": "_LP_ymiiUsdt",
					"outputs": [
						{
							"internalType": "address",
							"name": "",
							"type": "address"
						}
					],
					"stateMutability": "view",
					"type": "function"
				},
				{
					"inputs": [],
					"name": "_mathRight1",
					"outputs": [
						{
							"internalType": "uint256",
							"name": "",
							"type": "uint256"
						}
					],
					"stateMutability": "view",
					"type": "function"
				},
				{
					"inputs": [],
					"name": "_pancakeRouter",
					"outputs": [
						{
							"internalType": "address",
							"name": "",
							"type": "address"
						}
					],
					"stateMutability": "view",
					"type": "function"
				},
				{
					"inputs": [
						{
							"internalType": "address",
							"name": "pair",
							"type": "address"
						}
					],
					"name": "getETHPx",
					"outputs": [
						{
							"internalType": "uint256",
							"name": "",
							"type": "uint256"
						}
					],
					"stateMutability": "view",
					"type": "function"
				},
				{
					"inputs": [
						{
							"internalType": "address",
							"name": "pair",
							"type": "address"
						}
					],
					"name": "getTokenPrice",
					"outputs": [
						{
							"internalType": "uint256",
							"name": "",
							"type": "uint256"
						}
					],
					"stateMutability": "view",
					"type": "function"
				},
				{
					"inputs": [],
					"name": "lpPrice",
					"outputs": [
						{
							"internalType": "uint256",
							"name": "",
							"type": "uint256"
						}
					],
					"stateMutability": "view",
					"type": "function"
				},
				{
					"inputs": [],
					"name": "owner",
					"outputs": [
						{
							"internalType": "address",
							"name": "",
							"type": "address"
						}
					],
					"stateMutability": "view",
					"type": "function"
				},
				{
					"inputs": [
						{
							"internalType": "address",
							"name": "t_addr",
							"type": "address"
						}
					],
					"name": "set_LP_ymiiUsdt",
					"outputs": [],
					"stateMutability": "nonpayable",
					"type": "function"
				},
				{
					"inputs": [
						{
							"internalType": "address",
							"name": "t_addr",
							"type": "address"
						}
					],
					"name": "set_pancakeRouter",
					"outputs": [],
					"stateMutability": "nonpayable",
					"type": "function"
				},
				{
					"inputs": [
						{
							"internalType": "uint256",
							"name": "t_int",
							"type": "uint256"
						}
					],
					"name": "set_t_amount",
					"outputs": [],
					"stateMutability": "nonpayable",
					"type": "function"
				},
				{
					"inputs": [
						{
							"internalType": "uint256",
							"name": "t_int",
							"type": "uint256"
						}
					],
					"name": "set_t_wei",
					"outputs": [],
					"stateMutability": "nonpayable",
					"type": "function"
				},
				{
					"inputs": [
						{
							"internalType": "uint256",
							"name": "t_Price",
							"type": "uint256"
						}
					],
					"name": "set_usdtPrice",
					"outputs": [],
					"stateMutability": "nonpayable",
					"type": "function"
				},
				{
					"inputs": [],
					"name": "t_amount",
					"outputs": [
						{
							"internalType": "uint256",
							"name": "",
							"type": "uint256"
						}
					],
					"stateMutability": "view",
					"type": "function"
				},
				{
					"inputs": [],
					"name": "t_wei",
					"outputs": [
						{
							"internalType": "uint256",
							"name": "",
							"type": "uint256"
						}
					],
					"stateMutability": "view",
					"type": "function"
				},
				{
					"inputs": [
						{
							"internalType": "address",
							"name": "newOwner",
							"type": "address"
						}
					],
					"name": "transferOwnership",
					"outputs": [],
					"stateMutability": "nonpayable",
					"type": "function"
				},
				{
					"inputs": [],
					"name": "usdtPrice",
					"outputs": [
						{
							"internalType": "uint256",
							"name": "",
							"type": "uint256"
						}
					],
					"stateMutability": "view",
					"type": "function"
				}
			],
			"devdoc": {
				"kind": "dev",
				"methods": {},
				"version": 1
			},
			"evm": {
				"assembly": "    /* \"contracts/oracle/UniswapV2Oracle_pancake.sol\":7128:11572  contract UniswapV2Oracle is Ownable  {... */\n  mstore(0x40, 0x80)\n    /* \"contracts/oracle/UniswapV2Oracle_pancake.sol\":7261:7303  0x10ED43C718714eb63d5aA57B78B54704E256024E */\n  0x10ed43c718714eb63d5aa57b78b54704e256024e\n    /* \"contracts/oracle/UniswapV2Oracle_pancake.sol\":7229:7303  address public _pancakeRouter = 0x10ED43C718714eb63d5aA57B78B54704E256024E */\n  0x01\n  exp(0x0100, 0x00)\n  dup2\n  sload\n  dup2\n  0xffffffffffffffffffffffffffffffffffffffff\n  mul\n  not\n  and\n  swap1\n  dup4\n  0xffffffffffffffffffffffffffffffffffffffff\n  and\n  mul\n  or\n  swap1\n  sstore\n  pop\n    /* \"contracts/oracle/UniswapV2Oracle_pancake.sol\":7335:7377  0x6b6b2D8166D13b58155b8d454F239AE3691257A6 */\n  0x6b6b2d8166d13b58155b8d454f239ae3691257a6\n    /* \"contracts/oracle/UniswapV2Oracle_pancake.sol\":7307:7377  address public _LP_ymiiUsdt=0x6b6b2D8166D13b58155b8d454F239AE3691257A6 */\n  0x02\n  exp(0x0100, 0x00)\n  dup2\n  sload\n  dup2\n  0xffffffffffffffffffffffffffffffffffffffff\n  mul\n  not\n  and\n  swap1\n  dup4\n  0xffffffffffffffffffffffffffffffffffffffff\n  and\n  mul\n  or\n  swap1\n  sstore\n  pop\n    /* \"contracts/oracle/UniswapV2Oracle_pancake.sol\":7403:7420  10000000000000000 */\n  0x2386f26fc10000\n    /* \"contracts/oracle/UniswapV2Oracle_pancake.sol\":7381:7420  uint public usdtPrice=10000000000000000 */\n  0x03\n  sstore\n    /* \"contracts/oracle/UniswapV2Oracle_pancake.sol\":10062:10080  100000000000000000 */\n  0x016345785d8a0000\n    /* \"contracts/oracle/UniswapV2Oracle_pancake.sol\":10041:10080  uint public t_amount=100000000000000000 */\n  0x04\n  sstore\n    /* \"contracts/oracle/UniswapV2Oracle_pancake.sol\":10215:10217  14 */\n  0x0e\n    /* \"contracts/oracle/UniswapV2Oracle_pancake.sol\":10197:10217  uint public t_wei=14 */\n  0x05\n  sstore\n    /* \"contracts/oracle/UniswapV2Oracle_pancake.sol\":7128:11572  contract UniswapV2Oracle is Ownable  {... */\n  callvalue\n  dup1\n  iszero\n  tag_1\n  jumpi\n  0x00\n  dup1\n  revert\ntag_1:\n  pop\n    /* \"contracts/oracle/UniswapV2Oracle_pancake.sol\":6585:6602  address msgSender */\n  0x00\n    /* \"contracts/oracle/UniswapV2Oracle_pancake.sol\":6605:6615  msg.sender */\n  caller\n    /* \"contracts/oracle/UniswapV2Oracle_pancake.sol\":6585:6615  address msgSender = msg.sender */\n  swap1\n  pop\n    /* \"contracts/oracle/UniswapV2Oracle_pancake.sol\":6634:6643  msgSender */\n  dup1\n    /* \"contracts/oracle/UniswapV2Oracle_pancake.sol\":6625:6631  _owner */\n  0x00\n  dup1\n    /* \"contracts/oracle/UniswapV2Oracle_pancake.sol\":6625:6643  _owner = msgSender */\n  0x0100\n  exp\n  dup2\n  sload\n  dup2\n  0xffffffffffffffffffffffffffffffffffffffff\n  mul\n  not\n  and\n  swap1\n  dup4\n  0xffffffffffffffffffffffffffffffffffffffff\n  and\n  mul\n  or\n  swap1\n  sstore\n  pop\n    /* \"contracts/oracle/UniswapV2Oracle_pancake.sol\":6691:6700  msgSender */\n  dup1\n    /* \"contracts/oracle/UniswapV2Oracle_pancake.sol\":6658:6701  OwnershipTransferred(address(0), msgSender) */\n  0xffffffffffffffffffffffffffffffffffffffff\n  and\n    /* \"contracts/oracle/UniswapV2Oracle_pancake.sol\":6687:6688  0 */\n  0x00\n    /* \"contracts/oracle/UniswapV2Oracle_pancake.sol\":6658:6701  OwnershipTransferred(address(0), msgSender) */\n  0xffffffffffffffffffffffffffffffffffffffff\n  and\n  0x8be0079c531659141344cd1fd0a4f28419497f9722a3daafe3b4186f6b6457e0\n  mload(0x40)\n  mload(0x40)\n  dup1\n  swap2\n  sub\n  swap1\n  log3\n    /* \"contracts/oracle/UniswapV2Oracle_pancake.sol\":6553:6708  constructor () public {... */\n  pop\n    /* \"contracts/oracle/UniswapV2Oracle_pancake.sol\":7128:11572  contract UniswapV2Oracle is Ownable  {... */\n  dataSize(sub_0)\n  dup1\n  dataOffset(sub_0)\n  0x00\n  codecopy\n  0x00\n  return\nstop\n\nsub_0: assembly {\n        /* \"contracts/oracle/UniswapV2Oracle_pancake.sol\":7128:11572  contract UniswapV2Oracle is Ownable  {... */\n      mstore(0x40, 0x80)\n      callvalue\n      dup1\n      iszero\n      tag_1\n      jumpi\n      0x00\n      dup1\n      revert\n    tag_1:\n      pop\n      jumpi(tag_2, lt(calldatasize, 0x04))\n      shr(0xe0, calldataload(0x00))\n      dup1\n      0x937b1d24\n      gt\n      tag_19\n      jumpi\n      dup1\n      0xc0019e23\n      gt\n      tag_20\n      jumpi\n      dup1\n      0xc0019e23\n      eq\n      tag_15\n      jumpi\n      dup1\n      0xd02641a0\n      eq\n      tag_16\n      jumpi\n      dup1\n      0xe136f65f\n      eq\n      tag_17\n      jumpi\n      dup1\n      0xf2fde38b\n      eq\n      tag_18\n      jumpi\n      jump(tag_2)\n    tag_20:\n      dup1\n      0x937b1d24\n      eq\n      tag_11\n      jumpi\n      dup1\n      0x94217ebc\n      eq\n      tag_12\n      jumpi\n      dup1\n      0xab9aadfe\n      eq\n      tag_13\n      jumpi\n      dup1\n      0xba6f43e6\n      eq\n      tag_14\n      jumpi\n      jump(tag_2)\n    tag_19:\n      dup1\n      0x55a1ace8\n      gt\n      tag_21\n      jumpi\n      dup1\n      0x55a1ace8\n      eq\n      tag_7\n      jumpi\n      dup1\n      0x6276e479\n      eq\n      tag_8\n      jumpi\n      dup1\n      0x8da5cb5b\n      eq\n      tag_9\n      jumpi\n      dup1\n      0x8f075e7f\n      eq\n      tag_10\n      jumpi\n      jump(tag_2)\n    tag_21:\n      dup1\n      0x0c280444\n      eq\n      tag_3\n      jumpi\n      dup1\n      0x22a25421\n      eq\n      tag_4\n      jumpi\n      dup1\n      0x4251f8ba\n      eq\n      tag_5\n      jumpi\n      dup1\n      0x4e702769\n      eq\n      tag_6\n      jumpi\n    tag_2:\n      0x00\n      dup1\n      revert\n        /* \"contracts/oracle/UniswapV2Oracle_pancake.sol\":10459:11569  function lpPrice() public view returns (uint256) {... */\n    tag_3:\n      tag_22\n      tag_23\n      jump\t// in\n    tag_22:\n      mload(0x40)\n      dup1\n      dup3\n      dup2\n      mstore\n      0x20\n      add\n      swap2\n      pop\n      pop\n      mload(0x40)\n      dup1\n      swap2\n      sub\n      swap1\n      return\n        /* \"contracts/oracle/UniswapV2Oracle_pancake.sol\":10329:10455  function _mathRight1() public view  returns (uint256) {... */\n    tag_4:\n      tag_24\n      tag_25\n      jump\t// in\n    tag_24:\n      mload(0x40)\n      dup1\n      dup3\n      dup2\n      mstore\n      0x20\n      add\n      swap2\n      pop\n      pop\n      mload(0x40)\n      dup1\n      swap2\n      sub\n      swap1\n      return\n        /* \"contracts/oracle/UniswapV2Oracle_pancake.sol\":10197:10217  uint public t_wei=14 */\n    tag_5:\n      tag_26\n      tag_27\n      jump\t// in\n    tag_26:\n      mload(0x40)\n      dup1\n      dup3\n      dup2\n      mstore\n      0x20\n      add\n      swap2\n      pop\n      pop\n      mload(0x40)\n      dup1\n      swap2\n      sub\n      swap1\n      return\n        /* \"contracts/oracle/UniswapV2Oracle_pancake.sol\":10105:10192  function set_t_amount(uint256 t_int) public onlyOwner {... */\n    tag_6:\n      tag_28\n      0x04\n      dup1\n      calldatasize\n      sub\n      0x20\n      dup2\n      lt\n      iszero\n      tag_29\n      jumpi\n      0x00\n      dup1\n      revert\n    tag_29:\n      dup2\n      add\n      swap1\n      dup1\n      dup1\n      calldataload\n      swap1\n      0x20\n      add\n      swap1\n      swap3\n      swap2\n      swap1\n      pop\n      pop\n      pop\n      tag_30\n      jump\t// in\n    tag_28:\n      stop\n        /* \"contracts/oracle/UniswapV2Oracle_pancake.sol\":7447:7543  function set_LP_ymiiUsdt(address t_addr) public onlyOwner {... */\n    tag_7:\n      tag_31\n      0x04\n      dup1\n      calldatasize\n      sub\n      0x20\n      dup2\n      lt\n      iszero\n      tag_32\n      jumpi\n      0x00\n      dup1\n      revert\n    tag_32:\n      dup2\n      add\n      swap1\n      dup1\n      dup1\n      calldataload\n      0xffffffffffffffffffffffffffffffffffffffff\n      and\n      swap1\n      0x20\n      add\n      swap1\n      swap3\n      swap2\n      swap1\n      pop\n      pop\n      pop\n      tag_33\n      jump\t// in\n    tag_31:\n      stop\n        /* \"contracts/oracle/UniswapV2Oracle_pancake.sol\":7307:7377  address public _LP_ymiiUsdt=0x6b6b2D8166D13b58155b8d454F239AE3691257A6 */\n    tag_8:\n      tag_34\n      tag_35\n      jump\t// in\n    tag_34:\n      mload(0x40)\n      dup1\n      dup3\n      0xffffffffffffffffffffffffffffffffffffffff\n      and\n      dup2\n      mstore\n      0x20\n      add\n      swap2\n      pop\n      pop\n      mload(0x40)\n      dup1\n      swap2\n      sub\n      swap1\n      return\n        /* \"contracts/oracle/UniswapV2Oracle_pancake.sol\":6714:6791  function owner() public view returns (address) {... */\n    tag_9:\n      tag_36\n      tag_37\n      jump\t// in\n    tag_36:\n      mload(0x40)\n      dup1\n      dup3\n      0xffffffffffffffffffffffffffffffffffffffff\n      and\n      dup2\n      mstore\n      0x20\n      add\n      swap2\n      pop\n      pop\n      mload(0x40)\n      dup1\n      swap2\n      sub\n      swap1\n      return\n        /* \"contracts/oracle/UniswapV2Oracle_pancake.sol\":10243:10324  function set_t_wei(uint256 t_int) public onlyOwner {... */\n    tag_10:\n      tag_38\n      0x04\n      dup1\n      calldatasize\n      sub\n      0x20\n      dup2\n      lt\n      iszero\n      tag_39\n      jumpi\n      0x00\n      dup1\n      revert\n    tag_39:\n      dup2\n      add\n      swap1\n      dup1\n      dup1\n      calldataload\n      swap1\n      0x20\n      add\n      swap1\n      swap3\n      swap2\n      swap1\n      pop\n      pop\n      pop\n      tag_40\n      jump\t// in\n    tag_38:\n      stop\n        /* \"contracts/oracle/UniswapV2Oracle_pancake.sol\":7570:7663  function set_usdtPrice(uint256 t_Price) public onlyOwner {... */\n    tag_11:\n      tag_41\n      0x04\n      dup1\n      calldatasize\n      sub\n      0x20\n      dup2\n      lt\n      iszero\n      tag_42\n      jumpi\n      0x00\n      dup1\n      revert\n    tag_42:\n      dup2\n      add\n      swap1\n      dup1\n      dup1\n      calldataload\n      swap1\n      0x20\n      add\n      swap1\n      swap3\n      swap2\n      swap1\n      pop\n      pop\n      pop\n      tag_43\n      jump\t// in\n    tag_41:\n      stop\n        /* \"contracts/oracle/UniswapV2Oracle_pancake.sol\":7694:7794  function set_pancakeRouter(address t_addr) public onlyOwner {... */\n    tag_12:\n      tag_44\n      0x04\n      dup1\n      calldatasize\n      sub\n      0x20\n      dup2\n      lt\n      iszero\n      tag_45\n      jumpi\n      0x00\n      dup1\n      revert\n    tag_45:\n      dup2\n      add\n      swap1\n      dup1\n      dup1\n      calldataload\n      0xffffffffffffffffffffffffffffffffffffffff\n      and\n      swap1\n      0x20\n      add\n      swap1\n      swap3\n      swap2\n      swap1\n      pop\n      pop\n      pop\n      tag_46\n      jump\t// in\n    tag_44:\n      stop\n        /* \"contracts/oracle/UniswapV2Oracle_pancake.sol\":8935:10037  function getETHPx(address pair) external view returns (uint) {... */\n    tag_13:\n      tag_47\n      0x04\n      dup1\n      calldatasize\n      sub\n      0x20\n      dup2\n      lt\n      iszero\n      tag_48\n      jumpi\n      0x00\n      dup1\n      revert\n    tag_48:\n      dup2\n      add\n      swap1\n      dup1\n      dup1\n      calldataload\n      0xffffffffffffffffffffffffffffffffffffffff\n      and\n      swap1\n      0x20\n      add\n      swap1\n      swap3\n      swap2\n      swap1\n      pop\n      pop\n      pop\n      tag_49\n      jump\t// in\n    tag_47:\n      mload(0x40)\n      dup1\n      dup3\n      dup2\n      mstore\n      0x20\n      add\n      swap2\n      pop\n      pop\n      mload(0x40)\n      dup1\n      swap2\n      sub\n      swap1\n      return\n        /* \"contracts/oracle/UniswapV2Oracle_pancake.sol\":7229:7303  address public _pancakeRouter = 0x10ED43C718714eb63d5aA57B78B54704E256024E */\n    tag_14:\n      tag_50\n      tag_51\n      jump\t// in\n    tag_50:\n      mload(0x40)\n      dup1\n      dup3\n      0xffffffffffffffffffffffffffffffffffffffff\n      and\n      dup2\n      mstore\n      0x20\n      add\n      swap2\n      pop\n      pop\n      mload(0x40)\n      dup1\n      swap2\n      sub\n      swap1\n      return\n        /* \"contracts/oracle/UniswapV2Oracle_pancake.sol\":10041:10080  uint public t_amount=100000000000000000 */\n    tag_15:\n      tag_52\n      tag_53\n      jump\t// in\n    tag_52:\n      mload(0x40)\n      dup1\n      dup3\n      dup2\n      mstore\n      0x20\n      add\n      swap2\n      pop\n      pop\n      mload(0x40)\n      dup1\n      swap2\n      sub\n      swap1\n      return\n        /* \"contracts/oracle/UniswapV2Oracle_pancake.sol\":7798:8320  function getTokenPrice(address pair) external view  returns (uint) {... */\n    tag_16:\n      tag_54\n      0x04\n      dup1\n      calldatasize\n      sub\n      0x20\n      dup2\n      lt\n      iszero\n      tag_55\n      jumpi\n      0x00\n      dup1\n      revert\n    tag_55:\n      dup2\n      add\n      swap1\n      dup1\n      dup1\n      calldataload\n      0xffffffffffffffffffffffffffffffffffffffff\n      and\n      swap1\n      0x20\n      add\n      swap1\n      swap3\n      swap2\n      swap1\n      pop\n      pop\n      pop\n      tag_56\n      jump\t// in\n    tag_54:\n      mload(0x40)\n      dup1\n      dup3\n      dup2\n      mstore\n      0x20\n      add\n      swap2\n      pop\n      pop\n      mload(0x40)\n      dup1\n      swap2\n      sub\n      swap1\n      return\n        /* \"contracts/oracle/UniswapV2Oracle_pancake.sol\":7381:7420  uint public usdtPrice=10000000000000000 */\n    tag_17:\n      tag_57\n      tag_58\n      jump\t// in\n    tag_57:\n      mload(0x40)\n      dup1\n      dup3\n      dup2\n      mstore\n      0x20\n      add\n      swap2\n      pop\n      pop\n      mload(0x40)\n      dup1\n      swap2\n      sub\n      swap1\n      return\n        /* \"contracts/oracle/UniswapV2Oracle_pancake.sol\":6913:7123  function transferOwnership(address newOwner) public virtual onlyOwner {... */\n    tag_18:\n      tag_59\n      0x04\n      dup1\n      calldatasize\n      sub\n      0x20\n      dup2\n      lt\n      iszero\n      tag_60\n      jumpi\n      0x00\n      dup1\n      revert\n    tag_60:\n      dup2\n      add\n      swap1\n      dup1\n      dup1\n      calldataload\n      0xffffffffffffffffffffffffffffffffffffffff\n      and\n      swap1\n      0x20\n      add\n      swap1\n      swap3\n      swap2\n      swap1\n      pop\n      pop\n      pop\n      tag_61\n      jump\t// in\n    tag_59:\n      stop\n        /* \"contracts/oracle/UniswapV2Oracle_pancake.sol\":10459:11569  function lpPrice() public view returns (uint256) {... */\n    tag_23:\n        /* \"contracts/oracle/UniswapV2Oracle_pancake.sol\":10499:10506  uint256 */\n      0x00\n        /* \"contracts/oracle/UniswapV2Oracle_pancake.sol\":10641:10657  uint totalSupply */\n      dup1\n        /* \"contracts/oracle/UniswapV2Oracle_pancake.sol\":10675:10687  _LP_ymiiUsdt */\n      0x02\n      0x00\n      swap1\n      sload\n      swap1\n      0x0100\n      exp\n      swap1\n      div\n      0xffffffffffffffffffffffffffffffffffffffff\n      and\n        /* \"contracts/oracle/UniswapV2Oracle_pancake.sol\":10660:10700  IUniswapV2Pair(_LP_ymiiUsdt).totalSupply */\n      0xffffffffffffffffffffffffffffffffffffffff\n      and\n      0x18160ddd\n        /* \"contracts/oracle/UniswapV2Oracle_pancake.sol\":10660:10702  IUniswapV2Pair(_LP_ymiiUsdt).totalSupply() */\n      mload(0x40)\n      dup2\n      0xffffffff\n      and\n      0xe0\n      shl\n      dup2\n      mstore\n      0x04\n      add\n      0x20\n      mload(0x40)\n      dup1\n      dup4\n      sub\n      dup2\n      dup7\n      dup1\n      extcodesize\n      iszero\n      dup1\n      iszero\n      tag_63\n      jumpi\n      0x00\n      dup1\n      revert\n    tag_63:\n      pop\n      gas\n      staticcall\n      iszero\n      dup1\n      iszero\n      tag_65\n      jumpi\n      returndatasize\n      0x00\n      dup1\n      returndatacopy\n      revert(0x00, returndatasize)\n    tag_65:\n      pop\n      pop\n      pop\n      pop\n      mload(0x40)\n      returndatasize\n      0x20\n      dup2\n      lt\n      iszero\n      tag_66\n      jumpi\n      0x00\n      dup1\n      revert\n    tag_66:\n      dup2\n      add\n      swap1\n      dup1\n      dup1\n      mload\n      swap1\n      0x20\n      add\n      swap1\n      swap3\n      swap2\n      swap1\n      pop\n      pop\n      pop\n        /* \"contracts/oracle/UniswapV2Oracle_pancake.sol\":10641:10702  uint totalSupply = IUniswapV2Pair(_LP_ymiiUsdt).totalSupply() */\n      swap1\n      pop\n        /* \"contracts/oracle/UniswapV2Oracle_pancake.sol\":10709:10716  uint r0 */\n      0x00\n        /* \"contracts/oracle/UniswapV2Oracle_pancake.sol\":10718:10725  uint r1 */\n      dup1\n        /* \"contracts/oracle/UniswapV2Oracle_pancake.sol\":10746:10758  _LP_ymiiUsdt */\n      0x02\n      0x00\n      swap1\n      sload\n      swap1\n      0x0100\n      exp\n      swap1\n      div\n      0xffffffffffffffffffffffffffffffffffffffff\n      and\n        /* \"contracts/oracle/UniswapV2Oracle_pancake.sol\":10731:10771  IUniswapV2Pair(_LP_ymiiUsdt).getReserves */\n      0xffffffffffffffffffffffffffffffffffffffff\n      and\n      0x0902f1ac\n        /* \"contracts/oracle/UniswapV2Oracle_pancake.sol\":10731:10773  IUniswapV2Pair(_LP_ymiiUsdt).getReserves() */\n      mload(0x40)\n      dup2\n      0xffffffff\n      and\n      0xe0\n      shl\n      dup2\n      mstore\n      0x04\n      add\n      0x60\n      mload(0x40)\n      dup1\n      dup4\n      sub\n      dup2\n      dup7\n      dup1\n      extcodesize\n      iszero\n      dup1\n      iszero\n      tag_67\n      jumpi\n      0x00\n      dup1\n      revert\n    tag_67:\n      pop\n      gas\n      staticcall\n      iszero\n      dup1\n      iszero\n      tag_69\n      jumpi\n      returndatasize\n      0x00\n      dup1\n      returndatacopy\n      revert(0x00, returndatasize)\n    tag_69:\n      pop\n      pop\n      pop\n      pop\n      mload(0x40)\n      returndatasize\n      0x60\n      dup2\n      lt\n      iszero\n      tag_70\n      jumpi\n      0x00\n      dup1\n      revert\n    tag_70:\n      dup2\n      add\n      swap1\n      dup1\n      dup1\n      mload\n      swap1\n      0x20\n      add\n      swap1\n      swap3\n      swap2\n      swap1\n      dup1\n      mload\n      swap1\n      0x20\n      add\n      swap1\n      swap3\n      swap2\n      swap1\n      dup1\n      mload\n      swap1\n      0x20\n      add\n      swap1\n      swap3\n      swap2\n      swap1\n      pop\n      pop\n      pop\n        /* \"contracts/oracle/UniswapV2Oracle_pancake.sol\":10708:10773  (uint r0, uint r1, ) = IUniswapV2Pair(_LP_ymiiUsdt).getReserves() */\n      pop\n      0xffffffffffffffffffffffffffff\n      and\n      swap2\n      pop\n      0xffffffffffffffffffffffffffff\n      and\n      swap2\n      pop\n        /* \"contracts/oracle/UniswapV2Oracle_pancake.sol\":10779:10789  uint sqrtK */\n      0x00\n        /* \"contracts/oracle/UniswapV2Oracle_pancake.sol\":10792:10837  HomoraMath.sqrt(r0.mul(r1)).fdiv(totalSupply) */\n      tag_71\n        /* \"contracts/oracle/UniswapV2Oracle_pancake.sol\":10825:10836  totalSupply */\n      dup5\n        /* \"contracts/oracle/UniswapV2Oracle_pancake.sol\":10792:10819  HomoraMath.sqrt(r0.mul(r1)) */\n      tag_72\n        /* \"contracts/oracle/UniswapV2Oracle_pancake.sol\":10808:10818  r0.mul(r1) */\n      tag_73\n        /* \"contracts/oracle/UniswapV2Oracle_pancake.sol\":10815:10817  r1 */\n      dup6\n        /* \"contracts/oracle/UniswapV2Oracle_pancake.sol\":10808:10810  r0 */\n      dup8\n        /* \"contracts/oracle/UniswapV2Oracle_pancake.sol\":10808:10814  r0.mul */\n      tag_74\n      swap1\n        /* \"contracts/oracle/UniswapV2Oracle_pancake.sol\":10808:10818  r0.mul(r1) */\n      swap2\n      swap1\n      0xffffffff\n      and\n      jump\t// in\n    tag_73:\n        /* \"contracts/oracle/UniswapV2Oracle_pancake.sol\":10792:10807  HomoraMath.sqrt */\n      tag_75\n        /* \"contracts/oracle/UniswapV2Oracle_pancake.sol\":10792:10819  HomoraMath.sqrt(r0.mul(r1)) */\n      jump\t// in\n    tag_72:\n        /* \"contracts/oracle/UniswapV2Oracle_pancake.sol\":10792:10824  HomoraMath.sqrt(r0.mul(r1)).fdiv */\n      tag_76\n      swap1\n        /* \"contracts/oracle/UniswapV2Oracle_pancake.sol\":10792:10837  HomoraMath.sqrt(r0.mul(r1)).fdiv(totalSupply) */\n      swap2\n      swap1\n      0xffffffff\n      and\n      jump\t// in\n    tag_71:\n        /* \"contracts/oracle/UniswapV2Oracle_pancake.sol\":10779:10837  uint sqrtK = HomoraMath.sqrt(r0.mul(r1)).fdiv(totalSupply) */\n      swap1\n      pop\n        /* \"contracts/oracle/UniswapV2Oracle_pancake.sol\":10884:10892  uint px0 */\n      0x00\n        /* \"contracts/oracle/UniswapV2Oracle_pancake.sol\":10910:10924  _pancakeRouter */\n      0x01\n      0x00\n      swap1\n      sload\n      swap1\n      0x0100\n      exp\n      swap1\n      div\n      0xffffffffffffffffffffffffffffffffffffffff\n      and\n        /* \"contracts/oracle/UniswapV2Oracle_pancake.sol\":10893:10937  IPancakeRouter01(_pancakeRouter).getAmountIn */\n      0xffffffffffffffffffffffffffffffffffffffff\n      and\n      0x85f8c259\n        /* \"contracts/oracle/UniswapV2Oracle_pancake.sol\":10938:10947  usdtPrice */\n      sload(0x03)\n        /* \"contracts/oracle/UniswapV2Oracle_pancake.sol\":10948:10950  r0 */\n      dup7\n        /* \"contracts/oracle/UniswapV2Oracle_pancake.sol\":10951:10953  r1 */\n      dup7\n        /* \"contracts/oracle/UniswapV2Oracle_pancake.sol\":10893:10954  IPancakeRouter01(_pancakeRouter).getAmountIn(usdtPrice,r0,r1) */\n      mload(0x40)\n      dup5\n      0xffffffff\n      and\n      0xe0\n      shl\n      dup2\n      mstore\n      0x04\n      add\n      dup1\n      dup5\n      dup2\n      mstore\n      0x20\n      add\n      dup4\n      dup2\n      mstore\n      0x20\n      add\n      dup3\n      dup2\n      mstore\n      0x20\n      add\n      swap4\n      pop\n      pop\n      pop\n      pop\n      0x20\n      mload(0x40)\n      dup1\n      dup4\n      sub\n      dup2\n      dup7\n      dup1\n      extcodesize\n      iszero\n      dup1\n      iszero\n      tag_77\n      jumpi\n      0x00\n      dup1\n      revert\n    tag_77:\n      pop\n      gas\n      staticcall\n      iszero\n      dup1\n      iszero\n      tag_79\n      jumpi\n      returndatasize\n      0x00\n      dup1\n      returndatacopy\n      revert(0x00, returndatasize)\n    tag_79:\n      pop\n      pop\n      pop\n      pop\n      mload(0x40)\n      returndatasize\n      0x20\n      dup2\n      lt\n      iszero\n      tag_80\n      jumpi\n      0x00\n      dup1\n      revert\n    tag_80:\n      dup2\n      add\n      swap1\n      dup1\n      dup1\n      mload\n      swap1\n      0x20\n      add\n      swap1\n      swap3\n      swap2\n      swap1\n      pop\n      pop\n      pop\n        /* \"contracts/oracle/UniswapV2Oracle_pancake.sol\":10884:10954  uint px0=IPancakeRouter01(_pancakeRouter).getAmountIn(usdtPrice,r0,r1) */\n      swap1\n      pop\n        /* \"contracts/oracle/UniswapV2Oracle_pancake.sol\":10960:10968  uint px1 */\n      0x00\n        /* \"contracts/oracle/UniswapV2Oracle_pancake.sol\":10969:10978  usdtPrice */\n      sload(0x03)\n        /* \"contracts/oracle/UniswapV2Oracle_pancake.sol\":10960:10978  uint px1=usdtPrice */\n      swap1\n      pop\n        /* \"contracts/oracle/UniswapV2Oracle_pancake.sol\":11311:11319  uint t_p */\n      0x00\n        /* \"contracts/oracle/UniswapV2Oracle_pancake.sol\":11321:11407  sqrtK.mul(2).mul(HomoraMath.sqrt(px0)).div(2**56).mul(HomoraMath.sqrt(px1)).div(2**56) */\n      tag_81\n        /* \"contracts/oracle/UniswapV2Oracle_pancake.sol\":11401:11406  2**56 */\n      0x0100000000000000\n        /* \"contracts/oracle/UniswapV2Oracle_pancake.sol\":11321:11396  sqrtK.mul(2).mul(HomoraMath.sqrt(px0)).div(2**56).mul(HomoraMath.sqrt(px1)) */\n      tag_82\n        /* \"contracts/oracle/UniswapV2Oracle_pancake.sol\":11375:11395  HomoraMath.sqrt(px1) */\n      tag_83\n        /* \"contracts/oracle/UniswapV2Oracle_pancake.sol\":11391:11394  px1 */\n      dup6\n        /* \"contracts/oracle/UniswapV2Oracle_pancake.sol\":11375:11390  HomoraMath.sqrt */\n      tag_75\n        /* \"contracts/oracle/UniswapV2Oracle_pancake.sol\":11375:11395  HomoraMath.sqrt(px1) */\n      jump\t// in\n    tag_83:\n        /* \"contracts/oracle/UniswapV2Oracle_pancake.sol\":11321:11370  sqrtK.mul(2).mul(HomoraMath.sqrt(px0)).div(2**56) */\n      tag_84\n        /* \"contracts/oracle/UniswapV2Oracle_pancake.sol\":11364:11369  2**56 */\n      0x0100000000000000\n        /* \"contracts/oracle/UniswapV2Oracle_pancake.sol\":11321:11359  sqrtK.mul(2).mul(HomoraMath.sqrt(px0)) */\n      tag_85\n        /* \"contracts/oracle/UniswapV2Oracle_pancake.sol\":11338:11358  HomoraMath.sqrt(px0) */\n      tag_86\n        /* \"contracts/oracle/UniswapV2Oracle_pancake.sol\":11354:11357  px0 */\n      dup11\n        /* \"contracts/oracle/UniswapV2Oracle_pancake.sol\":11338:11353  HomoraMath.sqrt */\n      tag_75\n        /* \"contracts/oracle/UniswapV2Oracle_pancake.sol\":11338:11358  HomoraMath.sqrt(px0) */\n      jump\t// in\n    tag_86:\n        /* \"contracts/oracle/UniswapV2Oracle_pancake.sol\":11321:11333  sqrtK.mul(2) */\n      tag_87\n        /* \"contracts/oracle/UniswapV2Oracle_pancake.sol\":11331:11332  2 */\n      0x02\n        /* \"contracts/oracle/UniswapV2Oracle_pancake.sol\":11321:11326  sqrtK */\n      dup14\n        /* \"contracts/oracle/UniswapV2Oracle_pancake.sol\":11321:11330  sqrtK.mul */\n      tag_74\n      swap1\n        /* \"contracts/oracle/UniswapV2Oracle_pancake.sol\":11321:11333  sqrtK.mul(2) */\n      swap2\n      swap1\n      0xffffffff\n      and\n      jump\t// in\n    tag_87:\n        /* \"contracts/oracle/UniswapV2Oracle_pancake.sol\":11321:11337  sqrtK.mul(2).mul */\n      tag_74\n      swap1\n        /* \"contracts/oracle/UniswapV2Oracle_pancake.sol\":11321:11359  sqrtK.mul(2).mul(HomoraMath.sqrt(px0)) */\n      swap2\n      swap1\n      0xffffffff\n      and\n      jump\t// in\n    tag_85:\n        /* \"contracts/oracle/UniswapV2Oracle_pancake.sol\":11321:11363  sqrtK.mul(2).mul(HomoraMath.sqrt(px0)).div */\n      tag_88\n      swap1\n        /* \"contracts/oracle/UniswapV2Oracle_pancake.sol\":11321:11370  sqrtK.mul(2).mul(HomoraMath.sqrt(px0)).div(2**56) */\n      swap2\n      swap1\n      0xffffffff\n      and\n      jump\t// in\n    tag_84:\n        /* \"contracts/oracle/UniswapV2Oracle_pancake.sol\":11321:11374  sqrtK.mul(2).mul(HomoraMath.sqrt(px0)).div(2**56).mul */\n      tag_74\n      swap1\n        /* \"contracts/oracle/UniswapV2Oracle_pancake.sol\":11321:11396  sqrtK.mul(2).mul(HomoraMath.sqrt(px0)).div(2**56).mul(HomoraMath.sqrt(px1)) */\n      swap2\n      swap1\n      0xffffffff\n      and\n      jump\t// in\n    tag_82:\n        /* \"contracts/oracle/UniswapV2Oracle_pancake.sol\":11321:11400  sqrtK.mul(2).mul(HomoraMath.sqrt(px0)).div(2**56).mul(HomoraMath.sqrt(px1)).div */\n      tag_88\n      swap1\n        /* \"contracts/oracle/UniswapV2Oracle_pancake.sol\":11321:11407  sqrtK.mul(2).mul(HomoraMath.sqrt(px0)).div(2**56).mul(HomoraMath.sqrt(px1)).div(2**56) */\n      swap2\n      swap1\n      0xffffffff\n      and\n      jump\t// in\n    tag_81:\n        /* \"contracts/oracle/UniswapV2Oracle_pancake.sol\":11311:11407  uint t_p= sqrtK.mul(2).mul(HomoraMath.sqrt(px0)).div(2**56).mul(HomoraMath.sqrt(px1)).div(2**56) */\n      swap1\n      pop\n        /* \"contracts/oracle/UniswapV2Oracle_pancake.sol\":11413:11423  uint t_p_1 */\n      0x00\n        /* \"contracts/oracle/UniswapV2Oracle_pancake.sol\":11435:11440  t_wei */\n      sload(0x05)\n        /* \"contracts/oracle/UniswapV2Oracle_pancake.sol\":11431:11433  10 */\n      0x0a\n        /* \"contracts/oracle/UniswapV2Oracle_pancake.sol\":11431:11440  10**t_wei */\n      exp\n        /* \"contracts/oracle/UniswapV2Oracle_pancake.sol\":11426:11429  t_p */\n      dup3\n        /* \"contracts/oracle/UniswapV2Oracle_pancake.sol\":11426:11441  t_p/(10**t_wei) */\n      dup2\n      tag_89\n      jumpi\n      invalid\n    tag_89:\n      div\n        /* \"contracts/oracle/UniswapV2Oracle_pancake.sol\":11413:11441  uint t_p_1 = t_p/(10**t_wei) */\n      swap1\n      pop\n        /* \"contracts/oracle/UniswapV2Oracle_pancake.sol\":11457:11462  t_p_1 */\n      dup1\n        /* \"contracts/oracle/UniswapV2Oracle_pancake.sol\":11450:11462  return t_p_1 */\n      swap9\n      pop\n      pop\n      pop\n      pop\n      pop\n      pop\n      pop\n      pop\n      pop\n        /* \"contracts/oracle/UniswapV2Oracle_pancake.sol\":10459:11569  function lpPrice() public view returns (uint256) {... */\n      swap1\n      jump\t// out\n        /* \"contracts/oracle/UniswapV2Oracle_pancake.sol\":10329:10455  function _mathRight1() public view  returns (uint256) {... */\n    tag_25:\n        /* \"contracts/oracle/UniswapV2Oracle_pancake.sol\":10374:10381  uint256 */\n      0x00\n        /* \"contracts/oracle/UniswapV2Oracle_pancake.sol\":10391:10405  uint256 t_back */\n      dup1\n        /* \"contracts/oracle/UniswapV2Oracle_pancake.sol\":10422:10427  t_wei */\n      sload(0x05)\n        /* \"contracts/oracle/UniswapV2Oracle_pancake.sol\":10418:10420  10 */\n      0x0a\n        /* \"contracts/oracle/UniswapV2Oracle_pancake.sol\":10418:10427  10**t_wei */\n      exp\n        /* \"contracts/oracle/UniswapV2Oracle_pancake.sol\":10408:10416  t_amount */\n      sload(0x04)\n        /* \"contracts/oracle/UniswapV2Oracle_pancake.sol\":10408:10428  t_amount/(10**t_wei) */\n      dup2\n      tag_91\n      jumpi\n      invalid\n    tag_91:\n      div\n        /* \"contracts/oracle/UniswapV2Oracle_pancake.sol\":10391:10428  uint256 t_back = t_amount/(10**t_wei) */\n      swap1\n      pop\n        /* \"contracts/oracle/UniswapV2Oracle_pancake.sol\":10444:10450  t_back */\n      dup1\n        /* \"contracts/oracle/UniswapV2Oracle_pancake.sol\":10437:10450  return t_back */\n      swap2\n      pop\n      pop\n        /* \"contracts/oracle/UniswapV2Oracle_pancake.sol\":10329:10455  function _mathRight1() public view  returns (uint256) {... */\n      swap1\n      jump\t// out\n        /* \"contracts/oracle/UniswapV2Oracle_pancake.sol\":10197:10217  uint public t_wei=14 */\n    tag_27:\n      sload(0x05)\n      dup2\n      jump\t// out\n        /* \"contracts/oracle/UniswapV2Oracle_pancake.sol\":10105:10192  function set_t_amount(uint256 t_int) public onlyOwner {... */\n    tag_30:\n        /* \"contracts/oracle/UniswapV2Oracle_pancake.sol\":6846:6856  msg.sender */\n      caller\n        /* \"contracts/oracle/UniswapV2Oracle_pancake.sol\":6836:6856  _owner == msg.sender */\n      0xffffffffffffffffffffffffffffffffffffffff\n      and\n        /* \"contracts/oracle/UniswapV2Oracle_pancake.sol\":6836:6842  _owner */\n      0x00\n      dup1\n      sload\n      swap1\n      0x0100\n      exp\n      swap1\n      div\n      0xffffffffffffffffffffffffffffffffffffffff\n      and\n        /* \"contracts/oracle/UniswapV2Oracle_pancake.sol\":6836:6856  _owner == msg.sender */\n      0xffffffffffffffffffffffffffffffffffffffff\n      and\n      eq\n        /* \"contracts/oracle/UniswapV2Oracle_pancake.sol\":6836:6878  _owner == msg.sender||_owner == msg.sender */\n      dup1\n      tag_93\n      jumpi\n      pop\n        /* \"contracts/oracle/UniswapV2Oracle_pancake.sol\":6868:6878  msg.sender */\n      caller\n        /* \"contracts/oracle/UniswapV2Oracle_pancake.sol\":6858:6878  _owner == msg.sender */\n      0xffffffffffffffffffffffffffffffffffffffff\n      and\n        /* \"contracts/oracle/UniswapV2Oracle_pancake.sol\":6858:6864  _owner */\n      0x00\n      dup1\n      sload\n      swap1\n      0x0100\n      exp\n      swap1\n      div\n      0xffffffffffffffffffffffffffffffffffffffff\n      and\n        /* \"contracts/oracle/UniswapV2Oracle_pancake.sol\":6858:6878  _owner == msg.sender */\n      0xffffffffffffffffffffffffffffffffffffffff\n      and\n      eq\n        /* \"contracts/oracle/UniswapV2Oracle_pancake.sol\":6836:6878  _owner == msg.sender||_owner == msg.sender */\n    tag_93:\n        /* \"contracts/oracle/UniswapV2Oracle_pancake.sol\":6828:6889  require(_owner == msg.sender||_owner == msg.sender, \"!owner\") */\n      tag_94\n      jumpi\n      mload(0x40)\n      0x08c379a000000000000000000000000000000000000000000000000000000000\n      dup2\n      mstore\n      0x04\n      add\n      dup1\n      dup1\n      0x20\n      add\n      dup3\n      dup2\n      sub\n      dup3\n      mstore\n      0x06\n      dup2\n      mstore\n      0x20\n      add\n      dup1\n      0x216f776e65720000000000000000000000000000000000000000000000000000\n      dup2\n      mstore\n      pop\n      0x20\n      add\n      swap2\n      pop\n      pop\n      mload(0x40)\n      dup1\n      swap2\n      sub\n      swap1\n      revert\n    tag_94:\n        /* \"contracts/oracle/UniswapV2Oracle_pancake.sol\":10180:10185  t_int */\n      dup1\n        /* \"contracts/oracle/UniswapV2Oracle_pancake.sol\":10169:10177  t_amount */\n      0x04\n        /* \"contracts/oracle/UniswapV2Oracle_pancake.sol\":10169:10185  t_amount = t_int */\n      dup2\n      swap1\n      sstore\n      pop\n        /* \"contracts/oracle/UniswapV2Oracle_pancake.sol\":10105:10192  function set_t_amount(uint256 t_int) public onlyOwner {... */\n      pop\n      jump\t// out\n        /* \"contracts/oracle/UniswapV2Oracle_pancake.sol\":7447:7543  function set_LP_ymiiUsdt(address t_addr) public onlyOwner {... */\n    tag_33:\n        /* \"contracts/oracle/UniswapV2Oracle_pancake.sol\":6846:6856  msg.sender */\n      caller\n        /* \"contracts/oracle/UniswapV2Oracle_pancake.sol\":6836:6856  _owner == msg.sender */\n      0xffffffffffffffffffffffffffffffffffffffff\n      and\n        /* \"contracts/oracle/UniswapV2Oracle_pancake.sol\":6836:6842  _owner */\n      0x00\n      dup1\n      sload\n      swap1\n      0x0100\n      exp\n      swap1\n      div\n      0xffffffffffffffffffffffffffffffffffffffff\n      and\n        /* \"contracts/oracle/UniswapV2Oracle_pancake.sol\":6836:6856  _owner == msg.sender */\n      0xffffffffffffffffffffffffffffffffffffffff\n      and\n      eq\n        /* \"contracts/oracle/UniswapV2Oracle_pancake.sol\":6836:6878  _owner == msg.sender||_owner == msg.sender */\n      dup1\n      tag_97\n      jumpi\n      pop\n        /* \"contracts/oracle/UniswapV2Oracle_pancake.sol\":6868:6878  msg.sender */\n      caller\n        /* \"contracts/oracle/UniswapV2Oracle_pancake.sol\":6858:6878  _owner == msg.sender */\n      0xffffffffffffffffffffffffffffffffffffffff\n      and\n        /* \"contracts/oracle/UniswapV2Oracle_pancake.sol\":6858:6864  _owner */\n      0x00\n      dup1\n      sload\n      swap1\n      0x0100\n      exp\n      swap1\n      div\n      0xffffffffffffffffffffffffffffffffffffffff\n      and\n        /* \"contracts/oracle/UniswapV2Oracle_pancake.sol\":6858:6878  _owner == msg.sender */\n      0xffffffffffffffffffffffffffffffffffffffff\n      and\n      eq\n        /* \"contracts/oracle/UniswapV2Oracle_pancake.sol\":6836:6878  _owner == msg.sender||_owner == msg.sender */\n    tag_97:\n        /* \"contracts/oracle/UniswapV2Oracle_pancake.sol\":6828:6889  require(_owner == msg.sender||_owner == msg.sender, \"!owner\") */\n      tag_98\n      jumpi\n      mload(0x40)\n      0x08c379a000000000000000000000000000000000000000000000000000000000\n      dup2\n      mstore\n      0x04\n      add\n      dup1\n      dup1\n      0x20\n      add\n      dup3\n      dup2\n      sub\n      dup3\n      mstore\n      0x06\n      dup2\n      mstore\n      0x20\n      add\n      dup1\n      0x216f776e65720000000000000000000000000000000000000000000000000000\n      dup2\n      mstore\n      pop\n      0x20\n      add\n      swap2\n      pop\n      pop\n      mload(0x40)\n      dup1\n      swap2\n      sub\n      swap1\n      revert\n    tag_98:\n        /* \"contracts/oracle/UniswapV2Oracle_pancake.sol\":7530:7536  t_addr */\n      dup1\n        /* \"contracts/oracle/UniswapV2Oracle_pancake.sol\":7515:7527  _LP_ymiiUsdt */\n      0x02\n      0x00\n        /* \"contracts/oracle/UniswapV2Oracle_pancake.sol\":7515:7536  _LP_ymiiUsdt = t_addr */\n      0x0100\n      exp\n      dup2\n      sload\n      dup2\n      0xffffffffffffffffffffffffffffffffffffffff\n      mul\n      not\n      and\n      swap1\n      dup4\n      0xffffffffffffffffffffffffffffffffffffffff\n      and\n      mul\n      or\n      swap1\n      sstore\n      pop\n        /* \"contracts/oracle/UniswapV2Oracle_pancake.sol\":7447:7543  function set_LP_ymiiUsdt(address t_addr) public onlyOwner {... */\n      pop\n      jump\t// out\n        /* \"contracts/oracle/UniswapV2Oracle_pancake.sol\":7307:7377  address public _LP_ymiiUsdt=0x6b6b2D8166D13b58155b8d454F239AE3691257A6 */\n    tag_35:\n      0x02\n      0x00\n      swap1\n      sload\n      swap1\n      0x0100\n      exp\n      swap1\n      div\n      0xffffffffffffffffffffffffffffffffffffffff\n      and\n      dup2\n      jump\t// out\n        /* \"contracts/oracle/UniswapV2Oracle_pancake.sol\":6714:6791  function owner() public view returns (address) {... */\n    tag_37:\n        /* \"contracts/oracle/UniswapV2Oracle_pancake.sol\":6752:6759  address */\n      0x00\n        /* \"contracts/oracle/UniswapV2Oracle_pancake.sol\":6778:6784  _owner */\n      dup1\n      0x00\n      swap1\n      sload\n      swap1\n      0x0100\n      exp\n      swap1\n      div\n      0xffffffffffffffffffffffffffffffffffffffff\n      and\n        /* \"contracts/oracle/UniswapV2Oracle_pancake.sol\":6771:6784  return _owner */\n      swap1\n      pop\n        /* \"contracts/oracle/UniswapV2Oracle_pancake.sol\":6714:6791  function owner() public view returns (address) {... */\n      swap1\n      jump\t// out\n        /* \"contracts/oracle/UniswapV2Oracle_pancake.sol\":10243:10324  function set_t_wei(uint256 t_int) public onlyOwner {... */\n    tag_40:\n        /* \"contracts/oracle/UniswapV2Oracle_pancake.sol\":6846:6856  msg.sender */\n      caller\n        /* \"contracts/oracle/UniswapV2Oracle_pancake.sol\":6836:6856  _owner == msg.sender */\n      0xffffffffffffffffffffffffffffffffffffffff\n      and\n        /* \"contracts/oracle/UniswapV2Oracle_pancake.sol\":6836:6842  _owner */\n      0x00\n      dup1\n      sload\n      swap1\n      0x0100\n      exp\n      swap1\n      div\n      0xffffffffffffffffffffffffffffffffffffffff\n      and\n        /* \"contracts/oracle/UniswapV2Oracle_pancake.sol\":6836:6856  _owner == msg.sender */\n      0xffffffffffffffffffffffffffffffffffffffff\n      and\n      eq\n        /* \"contracts/oracle/UniswapV2Oracle_pancake.sol\":6836:6878  _owner == msg.sender||_owner == msg.sender */\n      dup1\n      tag_102\n      jumpi\n      pop\n        /* \"contracts/oracle/UniswapV2Oracle_pancake.sol\":6868:6878  msg.sender */\n      caller\n        /* \"contracts/oracle/UniswapV2Oracle_pancake.sol\":6858:6878  _owner == msg.sender */\n      0xffffffffffffffffffffffffffffffffffffffff\n      and\n        /* \"contracts/oracle/UniswapV2Oracle_pancake.sol\":6858:6864  _owner */\n      0x00\n      dup1\n      sload\n      swap1\n      0x0100\n      exp\n      swap1\n      div\n      0xffffffffffffffffffffffffffffffffffffffff\n      and\n        /* \"contracts/oracle/UniswapV2Oracle_pancake.sol\":6858:6878  _owner == msg.sender */\n      0xffffffffffffffffffffffffffffffffffffffff\n      and\n      eq\n        /* \"contracts/oracle/UniswapV2Oracle_pancake.sol\":6836:6878  _owner == msg.sender||_owner == msg.sender */\n    tag_102:\n        /* \"contracts/oracle/UniswapV2Oracle_pancake.sol\":6828:6889  require(_owner == msg.sender||_owner == msg.sender, \"!owner\") */\n      tag_103\n      jumpi\n      mload(0x40)\n      0x08c379a000000000000000000000000000000000000000000000000000000000\n      dup2\n      mstore\n      0x04\n      add\n      dup1\n      dup1\n      0x20\n      add\n      dup3\n      dup2\n      sub\n      dup3\n      mstore\n      0x06\n      dup2\n      mstore\n      0x20\n      add\n      dup1\n      0x216f776e65720000000000000000000000000000000000000000000000000000\n      dup2\n      mstore\n      pop\n      0x20\n      add\n      swap2\n      pop\n      pop\n      mload(0x40)\n      dup1\n      swap2\n      sub\n      swap1\n      revert\n    tag_103:\n        /* \"contracts/oracle/UniswapV2Oracle_pancake.sol\":10312:10317  t_int */\n      dup1\n        /* \"contracts/oracle/UniswapV2Oracle_pancake.sol\":10304:10309  t_wei */\n      0x05\n        /* \"contracts/oracle/UniswapV2Oracle_pancake.sol\":10304:10317  t_wei = t_int */\n      dup2\n      swap1\n      sstore\n      pop\n        /* \"contracts/oracle/UniswapV2Oracle_pancake.sol\":10243:10324  function set_t_wei(uint256 t_int) public onlyOwner {... */\n      pop\n      jump\t// out\n        /* \"contracts/oracle/UniswapV2Oracle_pancake.sol\":7570:7663  function set_usdtPrice(uint256 t_Price) public onlyOwner {... */\n    tag_43:\n        /* \"contracts/oracle/UniswapV2Oracle_pancake.sol\":6846:6856  msg.sender */\n      caller\n        /* \"contracts/oracle/UniswapV2Oracle_pancake.sol\":6836:6856  _owner == msg.sender */\n      0xffffffffffffffffffffffffffffffffffffffff\n      and\n        /* \"contracts/oracle/UniswapV2Oracle_pancake.sol\":6836:6842  _owner */\n      0x00\n      dup1\n      sload\n      swap1\n      0x0100\n      exp\n      swap1\n      div\n      0xffffffffffffffffffffffffffffffffffffffff\n      and\n        /* \"contracts/oracle/UniswapV2Oracle_pancake.sol\":6836:6856  _owner == msg.sender */\n      0xffffffffffffffffffffffffffffffffffffffff\n      and\n      eq\n        /* \"contracts/oracle/UniswapV2Oracle_pancake.sol\":6836:6878  _owner == msg.sender||_owner == msg.sender */\n      dup1\n      tag_106\n      jumpi\n      pop\n        /* \"contracts/oracle/UniswapV2Oracle_pancake.sol\":6868:6878  msg.sender */\n      caller\n        /* \"contracts/oracle/UniswapV2Oracle_pancake.sol\":6858:6878  _owner == msg.sender */\n      0xffffffffffffffffffffffffffffffffffffffff\n      and\n        /* \"contracts/oracle/UniswapV2Oracle_pancake.sol\":6858:6864  _owner */\n      0x00\n      dup1\n      sload\n      swap1\n      0x0100\n      exp\n      swap1\n      div\n      0xffffffffffffffffffffffffffffffffffffffff\n      and\n        /* \"contracts/oracle/UniswapV2Oracle_pancake.sol\":6858:6878  _owner == msg.sender */\n      0xffffffffffffffffffffffffffffffffffffffff\n      and\n      eq\n        /* \"contracts/oracle/UniswapV2Oracle_pancake.sol\":6836:6878  _owner == msg.sender||_owner == msg.sender */\n    tag_106:\n        /* \"contracts/oracle/UniswapV2Oracle_pancake.sol\":6828:6889  require(_owner == msg.sender||_owner == msg.sender, \"!owner\") */\n      tag_107\n      jumpi\n      mload(0x40)\n      0x08c379a000000000000000000000000000000000000000000000000000000000\n      dup2\n      mstore\n      0x04\n      add\n      dup1\n      dup1\n      0x20\n      add\n      dup3\n      dup2\n      sub\n      dup3\n      mstore\n      0x06\n      dup2\n      mstore\n      0x20\n      add\n      dup1\n      0x216f776e65720000000000000000000000000000000000000000000000000000\n      dup2\n      mstore\n      pop\n      0x20\n      add\n      swap2\n      pop\n      pop\n      mload(0x40)\n      dup1\n      swap2\n      sub\n      swap1\n      revert\n    tag_107:\n        /* \"contracts/oracle/UniswapV2Oracle_pancake.sol\":7649:7656  t_Price */\n      dup1\n        /* \"contracts/oracle/UniswapV2Oracle_pancake.sol\":7637:7646  usdtPrice */\n      0x03\n        /* \"contracts/oracle/UniswapV2Oracle_pancake.sol\":7637:7656  usdtPrice = t_Price */\n      dup2\n      swap1\n      sstore\n      pop\n        /* \"contracts/oracle/UniswapV2Oracle_pancake.sol\":7570:7663  function set_usdtPrice(uint256 t_Price) public onlyOwner {... */\n      pop\n      jump\t// out\n        /* \"contracts/oracle/UniswapV2Oracle_pancake.sol\":7694:7794  function set_pancakeRouter(address t_addr) public onlyOwner {... */\n    tag_46:\n        /* \"contracts/oracle/UniswapV2Oracle_pancake.sol\":6846:6856  msg.sender */\n      caller\n        /* \"contracts/oracle/UniswapV2Oracle_pancake.sol\":6836:6856  _owner == msg.sender */\n      0xffffffffffffffffffffffffffffffffffffffff\n      and\n        /* \"contracts/oracle/UniswapV2Oracle_pancake.sol\":6836:6842  _owner */\n      0x00\n      dup1\n      sload\n      swap1\n      0x0100\n      exp\n      swap1\n      div\n      0xffffffffffffffffffffffffffffffffffffffff\n      and\n        /* \"contracts/oracle/UniswapV2Oracle_pancake.sol\":6836:6856  _owner == msg.sender */\n      0xffffffffffffffffffffffffffffffffffffffff\n      and\n      eq\n        /* \"contracts/oracle/UniswapV2Oracle_pancake.sol\":6836:6878  _owner == msg.sender||_owner == msg.sender */\n      dup1\n      tag_110\n      jumpi\n      pop\n        /* \"contracts/oracle/UniswapV2Oracle_pancake.sol\":6868:6878  msg.sender */\n      caller\n        /* \"contracts/oracle/UniswapV2Oracle_pancake.sol\":6858:6878  _owner == msg.sender */\n      0xffffffffffffffffffffffffffffffffffffffff\n      and\n        /* \"contracts/oracle/UniswapV2Oracle_pancake.sol\":6858:6864  _owner */\n      0x00\n      dup1\n      sload\n      swap1\n      0x0100\n      exp\n      swap1\n      div\n      0xffffffffffffffffffffffffffffffffffffffff\n      and\n        /* \"contracts/oracle/UniswapV2Oracle_pancake.sol\":6858:6878  _owner == msg.sender */\n      0xffffffffffffffffffffffffffffffffffffffff\n      and\n      eq\n        /* \"contracts/oracle/UniswapV2Oracle_pancake.sol\":6836:6878  _owner == msg.sender||_owner == msg.sender */\n    tag_110:\n        /* \"contracts/oracle/UniswapV2Oracle_pancake.sol\":6828:6889  require(_owner == msg.sender||_owner == msg.sender, \"!owner\") */\n      tag_111\n      jumpi\n      mload(0x40)\n      0x08c379a000000000000000000000000000000000000000000000000000000000\n      dup2\n      mstore\n      0x04\n      add\n      dup1\n      dup1\n      0x20\n      add\n      dup3\n      dup2\n      sub\n      dup3\n      mstore\n      0x06\n      dup2\n      mstore\n      0x20\n      add\n      dup1\n      0x216f776e65720000000000000000000000000000000000000000000000000000\n      dup2\n      mstore\n      pop\n      0x20\n      add\n      swap2\n      pop\n      pop\n      mload(0x40)\n      dup1\n      swap2\n      sub\n      swap1\n      revert\n    tag_111:\n        /* \"contracts/oracle/UniswapV2Oracle_pancake.sol\":7781:7787  t_addr */\n      dup1\n        /* \"contracts/oracle/UniswapV2Oracle_pancake.sol\":7764:7778  _pancakeRouter */\n      0x01\n      0x00\n        /* \"contracts/oracle/UniswapV2Oracle_pancake.sol\":7764:7787  _pancakeRouter = t_addr */\n      0x0100\n      exp\n      dup2\n      sload\n      dup2\n      0xffffffffffffffffffffffffffffffffffffffff\n      mul\n      not\n      and\n      swap1\n      dup4\n      0xffffffffffffffffffffffffffffffffffffffff\n      and\n      mul\n      or\n      swap1\n      sstore\n      pop\n        /* \"contracts/oracle/UniswapV2Oracle_pancake.sol\":7694:7794  function set_pancakeRouter(address t_addr) public onlyOwner {... */\n      pop\n      jump\t// out\n        /* \"contracts/oracle/UniswapV2Oracle_pancake.sol\":8935:10037  function getETHPx(address pair) external view returns (uint) {... */\n    tag_49:\n        /* \"contracts/oracle/UniswapV2Oracle_pancake.sol\":8990:8994  uint */\n      0x00\n        /* \"contracts/oracle/UniswapV2Oracle_pancake.sol\":9124:9140  uint totalSupply */\n      dup1\n        /* \"contracts/oracle/UniswapV2Oracle_pancake.sol\":9158:9162  pair */\n      dup3\n        /* \"contracts/oracle/UniswapV2Oracle_pancake.sol\":9143:9175  IUniswapV2Pair(pair).totalSupply */\n      0xffffffffffffffffffffffffffffffffffffffff\n      and\n      0x18160ddd\n        /* \"contracts/oracle/UniswapV2Oracle_pancake.sol\":9143:9177  IUniswapV2Pair(pair).totalSupply() */\n      mload(0x40)\n      dup2\n      0xffffffff\n      and\n      0xe0\n      shl\n      dup2\n      mstore\n      0x04\n      add\n      0x20\n      mload(0x40)\n      dup1\n      dup4\n      sub\n      dup2\n      dup7\n      dup1\n      extcodesize\n      iszero\n      dup1\n      iszero\n      tag_114\n      jumpi\n      0x00\n      dup1\n      revert\n    tag_114:\n      pop\n      gas\n      staticcall\n      iszero\n      dup1\n      iszero\n      tag_116\n      jumpi\n      returndatasize\n      0x00\n      dup1\n      returndatacopy\n      revert(0x00, returndatasize)\n    tag_116:\n      pop\n      pop\n      pop\n      pop\n      mload(0x40)\n      returndatasize\n      0x20\n      dup2\n      lt\n      iszero\n      tag_117\n      jumpi\n      0x00\n      dup1\n      revert\n    tag_117:\n      dup2\n      add\n      swap1\n      dup1\n      dup1\n      mload\n      swap1\n      0x20\n      add\n      swap1\n      swap3\n      swap2\n      swap1\n      pop\n      pop\n      pop\n        /* \"contracts/oracle/UniswapV2Oracle_pancake.sol\":9124:9177  uint totalSupply = IUniswapV2Pair(pair).totalSupply() */\n      swap1\n      pop\n        /* \"contracts/oracle/UniswapV2Oracle_pancake.sol\":9184:9191  uint r0 */\n      0x00\n        /* \"contracts/oracle/UniswapV2Oracle_pancake.sol\":9193:9200  uint r1 */\n      dup1\n        /* \"contracts/oracle/UniswapV2Oracle_pancake.sol\":9221:9225  pair */\n      dup5\n        /* \"contracts/oracle/UniswapV2Oracle_pancake.sol\":9206:9238  IUniswapV2Pair(pair).getReserves */\n      0xffffffffffffffffffffffffffffffffffffffff\n      and\n      0x0902f1ac\n        /* \"contracts/oracle/UniswapV2Oracle_pancake.sol\":9206:9240  IUniswapV2Pair(pair).getReserves() */\n      mload(0x40)\n      dup2\n      0xffffffff\n      and\n      0xe0\n      shl\n      dup2\n      mstore\n      0x04\n      add\n      0x60\n      mload(0x40)\n      dup1\n      dup4\n      sub\n      dup2\n      dup7\n      dup1\n      extcodesize\n      iszero\n      dup1\n      iszero\n      tag_118\n      jumpi\n      0x00\n      dup1\n      revert\n    tag_118:\n      pop\n      gas\n      staticcall\n      iszero\n      dup1\n      iszero\n      tag_120\n      jumpi\n      returndatasize\n      0x00\n      dup1\n      returndatacopy\n      revert(0x00, returndatasize)\n    tag_120:\n      pop\n      pop\n      pop\n      pop\n      mload(0x40)\n      returndatasize\n      0x60\n      dup2\n      lt\n      iszero\n      tag_121\n      jumpi\n      0x00\n      dup1\n      revert\n    tag_121:\n      dup2\n      add\n      swap1\n      dup1\n      dup1\n      mload\n      swap1\n      0x20\n      add\n      swap1\n      swap3\n      swap2\n      swap1\n      dup1\n      mload\n      swap1\n      0x20\n      add\n      swap1\n      swap3\n      swap2\n      swap1\n      dup1\n      mload\n      swap1\n      0x20\n      add\n      swap1\n      swap3\n      swap2\n      swap1\n      pop\n      pop\n      pop\n        /* \"contracts/oracle/UniswapV2Oracle_pancake.sol\":9183:9240  (uint r0, uint r1, ) = IUniswapV2Pair(pair).getReserves() */\n      pop\n      0xffffffffffffffffffffffffffff\n      and\n      swap2\n      pop\n      0xffffffffffffffffffffffffffff\n      and\n      swap2\n      pop\n        /* \"contracts/oracle/UniswapV2Oracle_pancake.sol\":9246:9256  uint sqrtK */\n      0x00\n        /* \"contracts/oracle/UniswapV2Oracle_pancake.sol\":9259:9304  HomoraMath.sqrt(r0.mul(r1)).fdiv(totalSupply) */\n      tag_122\n        /* \"contracts/oracle/UniswapV2Oracle_pancake.sol\":9292:9303  totalSupply */\n      dup5\n        /* \"contracts/oracle/UniswapV2Oracle_pancake.sol\":9259:9286  HomoraMath.sqrt(r0.mul(r1)) */\n      tag_123\n        /* \"contracts/oracle/UniswapV2Oracle_pancake.sol\":9275:9285  r0.mul(r1) */\n      tag_124\n        /* \"contracts/oracle/UniswapV2Oracle_pancake.sol\":9282:9284  r1 */\n      dup6\n        /* \"contracts/oracle/UniswapV2Oracle_pancake.sol\":9275:9277  r0 */\n      dup8\n        /* \"contracts/oracle/UniswapV2Oracle_pancake.sol\":9275:9281  r0.mul */\n      tag_74\n      swap1\n        /* \"contracts/oracle/UniswapV2Oracle_pancake.sol\":9275:9285  r0.mul(r1) */\n      swap2\n      swap1\n      0xffffffff\n      and\n      jump\t// in\n    tag_124:\n        /* \"contracts/oracle/UniswapV2Oracle_pancake.sol\":9259:9274  HomoraMath.sqrt */\n      tag_75\n        /* \"contracts/oracle/UniswapV2Oracle_pancake.sol\":9259:9286  HomoraMath.sqrt(r0.mul(r1)) */\n      jump\t// in\n    tag_123:\n        /* \"contracts/oracle/UniswapV2Oracle_pancake.sol\":9259:9291  HomoraMath.sqrt(r0.mul(r1)).fdiv */\n      tag_76\n      swap1\n        /* \"contracts/oracle/UniswapV2Oracle_pancake.sol\":9259:9304  HomoraMath.sqrt(r0.mul(r1)).fdiv(totalSupply) */\n      swap2\n      swap1\n      0xffffffff\n      and\n      jump\t// in\n    tag_122:\n        /* \"contracts/oracle/UniswapV2Oracle_pancake.sol\":9246:9304  uint sqrtK = HomoraMath.sqrt(r0.mul(r1)).fdiv(totalSupply) */\n      swap1\n      pop\n        /* \"contracts/oracle/UniswapV2Oracle_pancake.sol\":9351:9359  uint px0 */\n      0x00\n        /* \"contracts/oracle/UniswapV2Oracle_pancake.sol\":9377:9391  _pancakeRouter */\n      0x01\n      0x00\n      swap1\n      sload\n      swap1\n      0x0100\n      exp\n      swap1\n      div\n      0xffffffffffffffffffffffffffffffffffffffff\n      and\n        /* \"contracts/oracle/UniswapV2Oracle_pancake.sol\":9360:9404  IPancakeRouter01(_pancakeRouter).getAmountIn */\n      0xffffffffffffffffffffffffffffffffffffffff\n      and\n      0x85f8c259\n        /* \"contracts/oracle/UniswapV2Oracle_pancake.sol\":9405:9414  usdtPrice */\n      sload(0x03)\n        /* \"contracts/oracle/UniswapV2Oracle_pancake.sol\":9415:9417  r0 */\n      dup7\n        /* \"contracts/oracle/UniswapV2Oracle_pancake.sol\":9418:9420  r1 */\n      dup7\n        /* \"contracts/oracle/UniswapV2Oracle_pancake.sol\":9360:9421  IPancakeRouter01(_pancakeRouter).getAmountIn(usdtPrice,r0,r1) */\n      mload(0x40)\n      dup5\n      0xffffffff\n      and\n      0xe0\n      shl\n      dup2\n      mstore\n      0x04\n      add\n      dup1\n      dup5\n      dup2\n      mstore\n      0x20\n      add\n      dup4\n      dup2\n      mstore\n      0x20\n      add\n      dup3\n      dup2\n      mstore\n      0x20\n      add\n      swap4\n      pop\n      pop\n      pop\n      pop\n      0x20\n      mload(0x40)\n      dup1\n      dup4\n      sub\n      dup2\n      dup7\n      dup1\n      extcodesize\n      iszero\n      dup1\n      iszero\n      tag_125\n      jumpi\n      0x00\n      dup1\n      revert\n    tag_125:\n      pop\n      gas\n      staticcall\n      iszero\n      dup1\n      iszero\n      tag_127\n      jumpi\n      returndatasize\n      0x00\n      dup1\n      returndatacopy\n      revert(0x00, returndatasize)\n    tag_127:\n      pop\n      pop\n      pop\n      pop\n      mload(0x40)\n      returndatasize\n      0x20\n      dup2\n      lt\n      iszero\n      tag_128\n      jumpi\n      0x00\n      dup1\n      revert\n    tag_128:\n      dup2\n      add\n      swap1\n      dup1\n      dup1\n      mload\n      swap1\n      0x20\n      add\n      swap1\n      swap3\n      swap2\n      swap1\n      pop\n      pop\n      pop\n        /* \"contracts/oracle/UniswapV2Oracle_pancake.sol\":9351:9421  uint px0=IPancakeRouter01(_pancakeRouter).getAmountIn(usdtPrice,r0,r1) */\n      swap1\n      pop\n        /* \"contracts/oracle/UniswapV2Oracle_pancake.sol\":9427:9435  uint px1 */\n      0x00\n        /* \"contracts/oracle/UniswapV2Oracle_pancake.sol\":9436:9445  usdtPrice */\n      sload(0x03)\n        /* \"contracts/oracle/UniswapV2Oracle_pancake.sol\":9427:9445  uint px1=usdtPrice */\n      swap1\n      pop\n        /* \"contracts/oracle/UniswapV2Oracle_pancake.sol\":9778:9786  uint t_p */\n      0x00\n        /* \"contracts/oracle/UniswapV2Oracle_pancake.sol\":9788:9874  sqrtK.mul(2).mul(HomoraMath.sqrt(px0)).div(2**56).mul(HomoraMath.sqrt(px1)).div(2**56) */\n      tag_129\n        /* \"contracts/oracle/UniswapV2Oracle_pancake.sol\":9868:9873  2**56 */\n      0x0100000000000000\n        /* \"contracts/oracle/UniswapV2Oracle_pancake.sol\":9788:9863  sqrtK.mul(2).mul(HomoraMath.sqrt(px0)).div(2**56).mul(HomoraMath.sqrt(px1)) */\n      tag_130\n        /* \"contracts/oracle/UniswapV2Oracle_pancake.sol\":9842:9862  HomoraMath.sqrt(px1) */\n      tag_131\n        /* \"contracts/oracle/UniswapV2Oracle_pancake.sol\":9858:9861  px1 */\n      dup6\n        /* \"contracts/oracle/UniswapV2Oracle_pancake.sol\":9842:9857  HomoraMath.sqrt */\n      tag_75\n        /* \"contracts/oracle/UniswapV2Oracle_pancake.sol\":9842:9862  HomoraMath.sqrt(px1) */\n      jump\t// in\n    tag_131:\n        /* \"contracts/oracle/UniswapV2Oracle_pancake.sol\":9788:9837  sqrtK.mul(2).mul(HomoraMath.sqrt(px0)).div(2**56) */\n      tag_132\n        /* \"contracts/oracle/UniswapV2Oracle_pancake.sol\":9831:9836  2**56 */\n      0x0100000000000000\n        /* \"contracts/oracle/UniswapV2Oracle_pancake.sol\":9788:9826  sqrtK.mul(2).mul(HomoraMath.sqrt(px0)) */\n      tag_133\n        /* \"contracts/oracle/UniswapV2Oracle_pancake.sol\":9805:9825  HomoraMath.sqrt(px0) */\n      tag_134\n        /* \"contracts/oracle/UniswapV2Oracle_pancake.sol\":9821:9824  px0 */\n      dup11\n        /* \"contracts/oracle/UniswapV2Oracle_pancake.sol\":9805:9820  HomoraMath.sqrt */\n      tag_75\n        /* \"contracts/oracle/UniswapV2Oracle_pancake.sol\":9805:9825  HomoraMath.sqrt(px0) */\n      jump\t// in\n    tag_134:\n        /* \"contracts/oracle/UniswapV2Oracle_pancake.sol\":9788:9800  sqrtK.mul(2) */\n      tag_135\n        /* \"contracts/oracle/UniswapV2Oracle_pancake.sol\":9798:9799  2 */\n      0x02\n        /* \"contracts/oracle/UniswapV2Oracle_pancake.sol\":9788:9793  sqrtK */\n      dup14\n        /* \"contracts/oracle/UniswapV2Oracle_pancake.sol\":9788:9797  sqrtK.mul */\n      tag_74\n      swap1\n        /* \"contracts/oracle/UniswapV2Oracle_pancake.sol\":9788:9800  sqrtK.mul(2) */\n      swap2\n      swap1\n      0xffffffff\n      and\n      jump\t// in\n    tag_135:\n        /* \"contracts/oracle/UniswapV2Oracle_pancake.sol\":9788:9804  sqrtK.mul(2).mul */\n      tag_74\n      swap1\n        /* \"contracts/oracle/UniswapV2Oracle_pancake.sol\":9788:9826  sqrtK.mul(2).mul(HomoraMath.sqrt(px0)) */\n      swap2\n      swap1\n      0xffffffff\n      and\n      jump\t// in\n    tag_133:\n        /* \"contracts/oracle/UniswapV2Oracle_pancake.sol\":9788:9830  sqrtK.mul(2).mul(HomoraMath.sqrt(px0)).div */\n      tag_88\n      swap1\n        /* \"contracts/oracle/UniswapV2Oracle_pancake.sol\":9788:9837  sqrtK.mul(2).mul(HomoraMath.sqrt(px0)).div(2**56) */\n      swap2\n      swap1\n      0xffffffff\n      and\n      jump\t// in\n    tag_132:\n        /* \"contracts/oracle/UniswapV2Oracle_pancake.sol\":9788:9841  sqrtK.mul(2).mul(HomoraMath.sqrt(px0)).div(2**56).mul */\n      tag_74\n      swap1\n        /* \"contracts/oracle/UniswapV2Oracle_pancake.sol\":9788:9863  sqrtK.mul(2).mul(HomoraMath.sqrt(px0)).div(2**56).mul(HomoraMath.sqrt(px1)) */\n      swap2\n      swap1\n      0xffffffff\n      and\n      jump\t// in\n    tag_130:\n        /* \"contracts/oracle/UniswapV2Oracle_pancake.sol\":9788:9867  sqrtK.mul(2).mul(HomoraMath.sqrt(px0)).div(2**56).mul(HomoraMath.sqrt(px1)).div */\n      tag_88\n      swap1\n        /* \"contracts/oracle/UniswapV2Oracle_pancake.sol\":9788:9874  sqrtK.mul(2).mul(HomoraMath.sqrt(px0)).div(2**56).mul(HomoraMath.sqrt(px1)).div(2**56) */\n      swap2\n      swap1\n      0xffffffff\n      and\n      jump\t// in\n    tag_129:\n        /* \"contracts/oracle/UniswapV2Oracle_pancake.sol\":9778:9874  uint t_p= sqrtK.mul(2).mul(HomoraMath.sqrt(px0)).div(2**56).mul(HomoraMath.sqrt(px1)).div(2**56) */\n      swap1\n      pop\n        /* \"contracts/oracle/UniswapV2Oracle_pancake.sol\":9880:9890  uint t_p_1 */\n      0x00\n        /* \"contracts/oracle/UniswapV2Oracle_pancake.sol\":9902:9907  t_wei */\n      sload(0x05)\n        /* \"contracts/oracle/UniswapV2Oracle_pancake.sol\":9898:9900  10 */\n      0x0a\n        /* \"contracts/oracle/UniswapV2Oracle_pancake.sol\":9898:9907  10**t_wei */\n      exp\n        /* \"contracts/oracle/UniswapV2Oracle_pancake.sol\":9893:9896  t_p */\n      dup3\n        /* \"contracts/oracle/UniswapV2Oracle_pancake.sol\":9893:9908  t_p/(10**t_wei) */\n      dup2\n      tag_136\n      jumpi\n      invalid\n    tag_136:\n      div\n        /* \"contracts/oracle/UniswapV2Oracle_pancake.sol\":9880:9908  uint t_p_1 = t_p/(10**t_wei) */\n      swap1\n      pop\n        /* \"contracts/oracle/UniswapV2Oracle_pancake.sol\":9924:9929  t_p_1 */\n      dup1\n        /* \"contracts/oracle/UniswapV2Oracle_pancake.sol\":9917:9929  return t_p_1 */\n      swap9\n      pop\n      pop\n      pop\n      pop\n      pop\n      pop\n      pop\n      pop\n      pop\n        /* \"contracts/oracle/UniswapV2Oracle_pancake.sol\":8935:10037  function getETHPx(address pair) external view returns (uint) {... */\n      swap2\n      swap1\n      pop\n      jump\t// out\n        /* \"contracts/oracle/UniswapV2Oracle_pancake.sol\":7229:7303  address public _pancakeRouter = 0x10ED43C718714eb63d5aA57B78B54704E256024E */\n    tag_51:\n      0x01\n      0x00\n      swap1\n      sload\n      swap1\n      0x0100\n      exp\n      swap1\n      div\n      0xffffffffffffffffffffffffffffffffffffffff\n      and\n      dup2\n      jump\t// out\n        /* \"contracts/oracle/UniswapV2Oracle_pancake.sol\":10041:10080  uint public t_amount=100000000000000000 */\n    tag_53:\n      sload(0x04)\n      dup2\n      jump\t// out\n        /* \"contracts/oracle/UniswapV2Oracle_pancake.sol\":7798:8320  function getTokenPrice(address pair) external view  returns (uint) {... */\n    tag_56:\n        /* \"contracts/oracle/UniswapV2Oracle_pancake.sol\":7859:7863  uint */\n      0x00\n        /* \"contracts/oracle/UniswapV2Oracle_pancake.sol\":8054:8061  uint r0 */\n      dup1\n        /* \"contracts/oracle/UniswapV2Oracle_pancake.sol\":8063:8070  uint r1 */\n      0x00\n        /* \"contracts/oracle/UniswapV2Oracle_pancake.sol\":8091:8095  pair */\n      dup4\n        /* \"contracts/oracle/UniswapV2Oracle_pancake.sol\":8076:8108  IUniswapV2Pair(pair).getReserves */\n      0xffffffffffffffffffffffffffffffffffffffff\n      and\n      0x0902f1ac\n        /* \"contracts/oracle/UniswapV2Oracle_pancake.sol\":8076:8110  IUniswapV2Pair(pair).getReserves() */\n      mload(0x40)\n      dup2\n      0xffffffff\n      and\n      0xe0\n      shl\n      dup2\n      mstore\n      0x04\n      add\n      0x60\n      mload(0x40)\n      dup1\n      dup4\n      sub\n      dup2\n      dup7\n      dup1\n      extcodesize\n      iszero\n      dup1\n      iszero\n      tag_138\n      jumpi\n      0x00\n      dup1\n      revert\n    tag_138:\n      pop\n      gas\n      staticcall\n      iszero\n      dup1\n      iszero\n      tag_140\n      jumpi\n      returndatasize\n      0x00\n      dup1\n      returndatacopy\n      revert(0x00, returndatasize)\n    tag_140:\n      pop\n      pop\n      pop\n      pop\n      mload(0x40)\n      returndatasize\n      0x60\n      dup2\n      lt\n      iszero\n      tag_141\n      jumpi\n      0x00\n      dup1\n      revert\n    tag_141:\n      dup2\n      add\n      swap1\n      dup1\n      dup1\n      mload\n      swap1\n      0x20\n      add\n      swap1\n      swap3\n      swap2\n      swap1\n      dup1\n      mload\n      swap1\n      0x20\n      add\n      swap1\n      swap3\n      swap2\n      swap1\n      dup1\n      mload\n      swap1\n      0x20\n      add\n      swap1\n      swap3\n      swap2\n      swap1\n      pop\n      pop\n      pop\n        /* \"contracts/oracle/UniswapV2Oracle_pancake.sol\":8053:8110  (uint r0, uint r1, ) = IUniswapV2Pair(pair).getReserves() */\n      pop\n      0xffffffffffffffffffffffffffff\n      and\n      swap2\n      pop\n      0xffffffffffffffffffffffffffff\n      and\n      swap2\n      pop\n        /* \"contracts/oracle/UniswapV2Oracle_pancake.sol\":8224:8232  uint px0 */\n      0x00\n        /* \"contracts/oracle/UniswapV2Oracle_pancake.sol\":8250:8264  _pancakeRouter */\n      0x01\n      0x00\n      swap1\n      sload\n      swap1\n      0x0100\n      exp\n      swap1\n      div\n      0xffffffffffffffffffffffffffffffffffffffff\n      and\n        /* \"contracts/oracle/UniswapV2Oracle_pancake.sol\":8233:8277  IPancakeRouter01(_pancakeRouter).getAmountIn */\n      0xffffffffffffffffffffffffffffffffffffffff\n      and\n      0x85f8c259\n        /* \"contracts/oracle/UniswapV2Oracle_pancake.sol\":8278:8287  usdtPrice */\n      sload(0x03)\n        /* \"contracts/oracle/UniswapV2Oracle_pancake.sol\":8288:8290  r0 */\n      dup6\n        /* \"contracts/oracle/UniswapV2Oracle_pancake.sol\":8291:8293  r1 */\n      dup6\n        /* \"contracts/oracle/UniswapV2Oracle_pancake.sol\":8233:8294  IPancakeRouter01(_pancakeRouter).getAmountIn(usdtPrice,r0,r1) */\n      mload(0x40)\n      dup5\n      0xffffffff\n      and\n      0xe0\n      shl\n      dup2\n      mstore\n      0x04\n      add\n      dup1\n      dup5\n      dup2\n      mstore\n      0x20\n      add\n      dup4\n      dup2\n      mstore\n      0x20\n      add\n      dup3\n      dup2\n      mstore\n      0x20\n      add\n      swap4\n      pop\n      pop\n      pop\n      pop\n      0x20\n      mload(0x40)\n      dup1\n      dup4\n      sub\n      dup2\n      dup7\n      dup1\n      extcodesize\n      iszero\n      dup1\n      iszero\n      tag_142\n      jumpi\n      0x00\n      dup1\n      revert\n    tag_142:\n      pop\n      gas\n      staticcall\n      iszero\n      dup1\n      iszero\n      tag_144\n      jumpi\n      returndatasize\n      0x00\n      dup1\n      returndatacopy\n      revert(0x00, returndatasize)\n    tag_144:\n      pop\n      pop\n      pop\n      pop\n      mload(0x40)\n      returndatasize\n      0x20\n      dup2\n      lt\n      iszero\n      tag_145\n      jumpi\n      0x00\n      dup1\n      revert\n    tag_145:\n      dup2\n      add\n      swap1\n      dup1\n      dup1\n      mload\n      swap1\n      0x20\n      add\n      swap1\n      swap3\n      swap2\n      swap1\n      pop\n      pop\n      pop\n        /* \"contracts/oracle/UniswapV2Oracle_pancake.sol\":8224:8294  uint px0=IPancakeRouter01(_pancakeRouter).getAmountIn(usdtPrice,r0,r1) */\n      swap1\n      pop\n        /* \"contracts/oracle/UniswapV2Oracle_pancake.sol\":8312:8315  px0 */\n      dup1\n        /* \"contracts/oracle/UniswapV2Oracle_pancake.sol\":8305:8315  return px0 */\n      swap4\n      pop\n      pop\n      pop\n      pop\n        /* \"contracts/oracle/UniswapV2Oracle_pancake.sol\":7798:8320  function getTokenPrice(address pair) external view  returns (uint) {... */\n      swap2\n      swap1\n      pop\n      jump\t// out\n        /* \"contracts/oracle/UniswapV2Oracle_pancake.sol\":7381:7420  uint public usdtPrice=10000000000000000 */\n    tag_58:\n      sload(0x03)\n      dup2\n      jump\t// out\n        /* \"contracts/oracle/UniswapV2Oracle_pancake.sol\":6913:7123  function transferOwnership(address newOwner) public virtual onlyOwner {... */\n    tag_61:\n        /* \"contracts/oracle/UniswapV2Oracle_pancake.sol\":6846:6856  msg.sender */\n      caller\n        /* \"contracts/oracle/UniswapV2Oracle_pancake.sol\":6836:6856  _owner == msg.sender */\n      0xffffffffffffffffffffffffffffffffffffffff\n      and\n        /* \"contracts/oracle/UniswapV2Oracle_pancake.sol\":6836:6842  _owner */\n      0x00\n      dup1\n      sload\n      swap1\n      0x0100\n      exp\n      swap1\n      div\n      0xffffffffffffffffffffffffffffffffffffffff\n      and\n        /* \"contracts/oracle/UniswapV2Oracle_pancake.sol\":6836:6856  _owner == msg.sender */\n      0xffffffffffffffffffffffffffffffffffffffff\n      and\n      eq\n        /* \"contracts/oracle/UniswapV2Oracle_pancake.sol\":6836:6878  _owner == msg.sender||_owner == msg.sender */\n      dup1\n      tag_147\n      jumpi\n      pop\n        /* \"contracts/oracle/UniswapV2Oracle_pancake.sol\":6868:6878  msg.sender */\n      caller\n        /* \"contracts/oracle/UniswapV2Oracle_pancake.sol\":6858:6878  _owner == msg.sender */\n      0xffffffffffffffffffffffffffffffffffffffff\n      and\n        /* \"contracts/oracle/UniswapV2Oracle_pancake.sol\":6858:6864  _owner */\n      0x00\n      dup1\n      sload\n      swap1\n      0x0100\n      exp\n      swap1\n      div\n      0xffffffffffffffffffffffffffffffffffffffff\n      and\n        /* \"contracts/oracle/UniswapV2Oracle_pancake.sol\":6858:6878  _owner == msg.sender */\n      0xffffffffffffffffffffffffffffffffffffffff\n      and\n      eq\n        /* \"contracts/oracle/UniswapV2Oracle_pancake.sol\":6836:6878  _owner == msg.sender||_owner == msg.sender */\n    tag_147:\n        /* \"contracts/oracle/UniswapV2Oracle_pancake.sol\":6828:6889  require(_owner == msg.sender||_owner == msg.sender, \"!owner\") */\n      tag_148\n      jumpi\n      mload(0x40)\n      0x08c379a000000000000000000000000000000000000000000000000000000000\n      dup2\n      mstore\n      0x04\n      add\n      dup1\n      dup1\n      0x20\n      add\n      dup3\n      dup2\n      sub\n      dup3\n      mstore\n      0x06\n      dup2\n      mstore\n      0x20\n      add\n      dup1\n      0x216f776e65720000000000000000000000000000000000000000000000000000\n      dup2\n      mstore\n      pop\n      0x20\n      add\n      swap2\n      pop\n      pop\n      mload(0x40)\n      dup1\n      swap2\n      sub\n      swap1\n      revert\n    tag_148:\n        /* \"contracts/oracle/UniswapV2Oracle_pancake.sol\":7021:7022  0 */\n      0x00\n        /* \"contracts/oracle/UniswapV2Oracle_pancake.sol\":7001:7023  newOwner != address(0) */\n      0xffffffffffffffffffffffffffffffffffffffff\n      and\n        /* \"contracts/oracle/UniswapV2Oracle_pancake.sol\":7001:7009  newOwner */\n      dup2\n        /* \"contracts/oracle/UniswapV2Oracle_pancake.sol\":7001:7023  newOwner != address(0) */\n      0xffffffffffffffffffffffffffffffffffffffff\n      and\n      eq\n      iszero\n        /* \"contracts/oracle/UniswapV2Oracle_pancake.sol\":6993:7036  require(newOwner != address(0), \"new is 0\") */\n      tag_150\n      jumpi\n      mload(0x40)\n      0x08c379a000000000000000000000000000000000000000000000000000000000\n      dup2\n      mstore\n      0x04\n      add\n      dup1\n      dup1\n      0x20\n      add\n      dup3\n      dup2\n      sub\n      dup3\n      mstore\n      0x08\n      dup2\n      mstore\n      0x20\n      add\n      dup1\n      0x6e65772069732030000000000000000000000000000000000000000000000000\n      dup2\n      mstore\n      pop\n      0x20\n      add\n      swap2\n      pop\n      pop\n      mload(0x40)\n      dup1\n      swap2\n      sub\n      swap1\n      revert\n    tag_150:\n        /* \"contracts/oracle/UniswapV2Oracle_pancake.sol\":7080:7088  newOwner */\n      dup1\n        /* \"contracts/oracle/UniswapV2Oracle_pancake.sol\":7051:7089  OwnershipTransferred(_owner, newOwner) */\n      0xffffffffffffffffffffffffffffffffffffffff\n      and\n        /* \"contracts/oracle/UniswapV2Oracle_pancake.sol\":7072:7078  _owner */\n      0x00\n      dup1\n      sload\n      swap1\n      0x0100\n      exp\n      swap1\n      div\n      0xffffffffffffffffffffffffffffffffffffffff\n      and\n        /* \"contracts/oracle/UniswapV2Oracle_pancake.sol\":7051:7089  OwnershipTransferred(_owner, newOwner) */\n      0xffffffffffffffffffffffffffffffffffffffff\n      and\n      0x8be0079c531659141344cd1fd0a4f28419497f9722a3daafe3b4186f6b6457e0\n      mload(0x40)\n      mload(0x40)\n      dup1\n      swap2\n      sub\n      swap1\n      log3\n        /* \"contracts/oracle/UniswapV2Oracle_pancake.sol\":7108:7116  newOwner */\n      dup1\n        /* \"contracts/oracle/UniswapV2Oracle_pancake.sol\":7099:7105  _owner */\n      0x00\n      dup1\n        /* \"contracts/oracle/UniswapV2Oracle_pancake.sol\":7099:7116  _owner = newOwner */\n      0x0100\n      exp\n      dup2\n      sload\n      dup2\n      0xffffffffffffffffffffffffffffffffffffffff\n      mul\n      not\n      and\n      swap1\n      dup4\n      0xffffffffffffffffffffffffffffffffffffffff\n      and\n      mul\n      or\n      swap1\n      sstore\n      pop\n        /* \"contracts/oracle/UniswapV2Oracle_pancake.sol\":6913:7123  function transferOwnership(address newOwner) public virtual onlyOwner {... */\n      pop\n      jump\t// out\n        /* \"@openzeppelin/contracts/math/SafeMath.sol\":3538:3753  function mul(uint256 a, uint256 b) internal pure returns (uint256) {... */\n    tag_74:\n        /* \"@openzeppelin/contracts/math/SafeMath.sol\":3596:3603  uint256 */\n      0x00\n        /* \"@openzeppelin/contracts/math/SafeMath.sol\":3624:3625  0 */\n      dup1\n        /* \"@openzeppelin/contracts/math/SafeMath.sol\":3619:3620  a */\n      dup4\n        /* \"@openzeppelin/contracts/math/SafeMath.sol\":3619:3625  a == 0 */\n      eq\n        /* \"@openzeppelin/contracts/math/SafeMath.sol\":3615:3635  if (a == 0) return 0 */\n      iszero\n      tag_152\n      jumpi\n        /* \"@openzeppelin/contracts/math/SafeMath.sol\":3634:3635  0 */\n      0x00\n        /* \"@openzeppelin/contracts/math/SafeMath.sol\":3627:3635  return 0 */\n      swap1\n      pop\n      jump(tag_151)\n        /* \"@openzeppelin/contracts/math/SafeMath.sol\":3615:3635  if (a == 0) return 0 */\n    tag_152:\n        /* \"@openzeppelin/contracts/math/SafeMath.sol\":3645:3654  uint256 c */\n      0x00\n        /* \"@openzeppelin/contracts/math/SafeMath.sol\":3661:3662  b */\n      dup3\n        /* \"@openzeppelin/contracts/math/SafeMath.sol\":3657:3658  a */\n      dup5\n        /* \"@openzeppelin/contracts/math/SafeMath.sol\":3657:3662  a * b */\n      mul\n        /* \"@openzeppelin/contracts/math/SafeMath.sol\":3645:3662  uint256 c = a * b */\n      swap1\n      pop\n        /* \"@openzeppelin/contracts/math/SafeMath.sol\":3689:3690  b */\n      dup3\n        /* \"@openzeppelin/contracts/math/SafeMath.sol\":3684:3685  a */\n      dup5\n        /* \"@openzeppelin/contracts/math/SafeMath.sol\":3680:3681  c */\n      dup3\n        /* \"@openzeppelin/contracts/math/SafeMath.sol\":3680:3685  c / a */\n      dup2\n      tag_153\n      jumpi\n      invalid\n    tag_153:\n      div\n        /* \"@openzeppelin/contracts/math/SafeMath.sol\":3680:3690  c / a == b */\n      eq\n        /* \"@openzeppelin/contracts/math/SafeMath.sol\":3672:3728  require(c / a == b, \"SafeMath: multiplication overflow\") */\n      tag_154\n      jumpi\n      mload(0x40)\n      0x08c379a000000000000000000000000000000000000000000000000000000000\n      dup2\n      mstore\n      0x04\n      add\n      dup1\n      dup1\n      0x20\n      add\n      dup3\n      dup2\n      sub\n      dup3\n      mstore\n      0x21\n      dup2\n      mstore\n      0x20\n      add\n      dup1\n      data_9113bb53c2876a3805b2c9242029423fc540a728243ce887ab24c82cf119fba3\n      0x21\n      swap2\n      codecopy\n      0x40\n      add\n      swap2\n      pop\n      pop\n      mload(0x40)\n      dup1\n      swap2\n      sub\n      swap1\n      revert\n    tag_154:\n        /* \"@openzeppelin/contracts/math/SafeMath.sol\":3745:3746  c */\n      dup1\n        /* \"@openzeppelin/contracts/math/SafeMath.sol\":3738:3746  return c */\n      swap2\n      pop\n      pop\n        /* \"@openzeppelin/contracts/math/SafeMath.sol\":3538:3753  function mul(uint256 a, uint256 b) internal pure returns (uint256) {... */\n    tag_151:\n      swap3\n      swap2\n      pop\n      pop\n      jump\t// out\n        /* \"contracts/utils/HomoraMath.sol\":798:1647  function sqrt(uint x) internal pure returns (uint) {... */\n    tag_75:\n        /* \"contracts/utils/HomoraMath.sol\":843:847  uint */\n      0x00\n        /* \"contracts/utils/HomoraMath.sol\":864:865  0 */\n      dup1\n        /* \"contracts/utils/HomoraMath.sol\":859:860  x */\n      dup3\n        /* \"contracts/utils/HomoraMath.sol\":859:865  x == 0 */\n      eq\n        /* \"contracts/utils/HomoraMath.sol\":855:875  if (x == 0) return 0 */\n      iszero\n      tag_156\n      jumpi\n        /* \"contracts/utils/HomoraMath.sol\":874:875  0 */\n      0x00\n        /* \"contracts/utils/HomoraMath.sol\":867:875  return 0 */\n      swap1\n      pop\n      jump(tag_155)\n        /* \"contracts/utils/HomoraMath.sol\":855:875  if (x == 0) return 0 */\n    tag_156:\n        /* \"contracts/utils/HomoraMath.sol\":881:888  uint xx */\n      0x00\n        /* \"contracts/utils/HomoraMath.sol\":891:892  x */\n      dup3\n        /* \"contracts/utils/HomoraMath.sol\":881:892  uint xx = x */\n      swap1\n      pop\n        /* \"contracts/utils/HomoraMath.sol\":898:904  uint r */\n      0x00\n        /* \"contracts/utils/HomoraMath.sol\":907:908  1 */\n      0x01\n        /* \"contracts/utils/HomoraMath.sol\":898:908  uint r = 1 */\n      swap1\n      pop\n        /* \"contracts/utils/HomoraMath.sol\":925:960  0x100000000000000000000000000000000 */\n      0x0100000000000000000000000000000000\n        /* \"contracts/utils/HomoraMath.sol\":919:921  xx */\n      dup3\n        /* \"contracts/utils/HomoraMath.sol\":919:960  xx >= 0x100000000000000000000000000000000 */\n      lt\n        /* \"contracts/utils/HomoraMath.sol\":915:1003  if (xx >= 0x100000000000000000000000000000000) {... */\n      tag_157\n      jumpi\n        /* \"contracts/utils/HomoraMath.sol\":977:980  128 */\n      0x80\n        /* \"contracts/utils/HomoraMath.sol\":970:980  xx >>= 128 */\n      dup3\n      swap1\n      shr\n      swap2\n      pop\n        /* \"contracts/utils/HomoraMath.sol\":994:996  64 */\n      0x40\n        /* \"contracts/utils/HomoraMath.sol\":988:996  r <<= 64 */\n      dup2\n      swap1\n      shl\n      swap1\n      pop\n        /* \"contracts/utils/HomoraMath.sol\":915:1003  if (xx >= 0x100000000000000000000000000000000) {... */\n    tag_157:\n        /* \"contracts/utils/HomoraMath.sol\":1019:1038  0x10000000000000000 */\n      0x010000000000000000\n        /* \"contracts/utils/HomoraMath.sol\":1013:1015  xx */\n      dup3\n        /* \"contracts/utils/HomoraMath.sol\":1013:1038  xx >= 0x10000000000000000 */\n      lt\n        /* \"contracts/utils/HomoraMath.sol\":1009:1080  if (xx >= 0x10000000000000000) {... */\n      tag_158\n      jumpi\n        /* \"contracts/utils/HomoraMath.sol\":1055:1057  64 */\n      0x40\n        /* \"contracts/utils/HomoraMath.sol\":1048:1057  xx >>= 64 */\n      dup3\n      swap1\n      shr\n      swap2\n      pop\n        /* \"contracts/utils/HomoraMath.sol\":1071:1073  32 */\n      0x20\n        /* \"contracts/utils/HomoraMath.sol\":1065:1073  r <<= 32 */\n      dup2\n      swap1\n      shl\n      swap1\n      pop\n        /* \"contracts/utils/HomoraMath.sol\":1009:1080  if (xx >= 0x10000000000000000) {... */\n    tag_158:\n        /* \"contracts/utils/HomoraMath.sol\":1095:1106  0x100000000 */\n      0x0100000000\n        /* \"contracts/utils/HomoraMath.sol\":1089:1091  xx */\n      dup3\n        /* \"contracts/utils/HomoraMath.sol\":1089:1106  xx >= 0x100000000 */\n      lt\n        /* \"contracts/utils/HomoraMath.sol\":1085:1148  if (xx >= 0x100000000) {... */\n      tag_159\n      jumpi\n        /* \"contracts/utils/HomoraMath.sol\":1123:1125  32 */\n      0x20\n        /* \"contracts/utils/HomoraMath.sol\":1116:1125  xx >>= 32 */\n      dup3\n      swap1\n      shr\n      swap2\n      pop\n        /* \"contracts/utils/HomoraMath.sol\":1139:1141  16 */\n      0x10\n        /* \"contracts/utils/HomoraMath.sol\":1133:1141  r <<= 16 */\n      dup2\n      swap1\n      shl\n      swap1\n      pop\n        /* \"contracts/utils/HomoraMath.sol\":1085:1148  if (xx >= 0x100000000) {... */\n    tag_159:\n        /* \"contracts/utils/HomoraMath.sol\":1163:1170  0x10000 */\n      0x010000\n        /* \"contracts/utils/HomoraMath.sol\":1157:1159  xx */\n      dup3\n        /* \"contracts/utils/HomoraMath.sol\":1157:1170  xx >= 0x10000 */\n      lt\n        /* \"contracts/utils/HomoraMath.sol\":1153:1211  if (xx >= 0x10000) {... */\n      tag_160\n      jumpi\n        /* \"contracts/utils/HomoraMath.sol\":1187:1189  16 */\n      0x10\n        /* \"contracts/utils/HomoraMath.sol\":1180:1189  xx >>= 16 */\n      dup3\n      swap1\n      shr\n      swap2\n      pop\n        /* \"contracts/utils/HomoraMath.sol\":1203:1204  8 */\n      0x08\n        /* \"contracts/utils/HomoraMath.sol\":1197:1204  r <<= 8 */\n      dup2\n      swap1\n      shl\n      swap1\n      pop\n        /* \"contracts/utils/HomoraMath.sol\":1153:1211  if (xx >= 0x10000) {... */\n    tag_160:\n        /* \"contracts/utils/HomoraMath.sol\":1226:1231  0x100 */\n      0x0100\n        /* \"contracts/utils/HomoraMath.sol\":1220:1222  xx */\n      dup3\n        /* \"contracts/utils/HomoraMath.sol\":1220:1231  xx >= 0x100 */\n      lt\n        /* \"contracts/utils/HomoraMath.sol\":1216:1271  if (xx >= 0x100) {... */\n      tag_161\n      jumpi\n        /* \"contracts/utils/HomoraMath.sol\":1248:1249  8 */\n      0x08\n        /* \"contracts/utils/HomoraMath.sol\":1241:1249  xx >>= 8 */\n      dup3\n      swap1\n      shr\n      swap2\n      pop\n        /* \"contracts/utils/HomoraMath.sol\":1263:1264  4 */\n      0x04\n        /* \"contracts/utils/HomoraMath.sol\":1257:1264  r <<= 4 */\n      dup2\n      swap1\n      shl\n      swap1\n      pop\n        /* \"contracts/utils/HomoraMath.sol\":1216:1271  if (xx >= 0x100) {... */\n    tag_161:\n        /* \"contracts/utils/HomoraMath.sol\":1286:1290  0x10 */\n      0x10\n        /* \"contracts/utils/HomoraMath.sol\":1280:1282  xx */\n      dup3\n        /* \"contracts/utils/HomoraMath.sol\":1280:1290  xx >= 0x10 */\n      lt\n        /* \"contracts/utils/HomoraMath.sol\":1276:1330  if (xx >= 0x10) {... */\n      tag_162\n      jumpi\n        /* \"contracts/utils/HomoraMath.sol\":1307:1308  4 */\n      0x04\n        /* \"contracts/utils/HomoraMath.sol\":1300:1308  xx >>= 4 */\n      dup3\n      swap1\n      shr\n      swap2\n      pop\n        /* \"contracts/utils/HomoraMath.sol\":1322:1323  2 */\n      0x02\n        /* \"contracts/utils/HomoraMath.sol\":1316:1323  r <<= 2 */\n      dup2\n      swap1\n      shl\n      swap1\n      pop\n        /* \"contracts/utils/HomoraMath.sol\":1276:1330  if (xx >= 0x10) {... */\n    tag_162:\n        /* \"contracts/utils/HomoraMath.sol\":1345:1348  0x8 */\n      0x08\n        /* \"contracts/utils/HomoraMath.sol\":1339:1341  xx */\n      dup3\n        /* \"contracts/utils/HomoraMath.sol\":1339:1348  xx >= 0x8 */\n      lt\n        /* \"contracts/utils/HomoraMath.sol\":1335:1372  if (xx >= 0x8) {... */\n      tag_163\n      jumpi\n        /* \"contracts/utils/HomoraMath.sol\":1364:1365  1 */\n      0x01\n        /* \"contracts/utils/HomoraMath.sol\":1358:1365  r <<= 1 */\n      dup2\n      swap1\n      shl\n      swap1\n      pop\n        /* \"contracts/utils/HomoraMath.sol\":1335:1372  if (xx >= 0x8) {... */\n    tag_163:\n        /* \"contracts/utils/HomoraMath.sol\":1397:1398  1 */\n      0x01\n        /* \"contracts/utils/HomoraMath.sol\":1391:1392  r */\n      dup2\n        /* \"contracts/utils/HomoraMath.sol\":1387:1388  x */\n      dup6\n        /* \"contracts/utils/HomoraMath.sol\":1387:1392  x / r */\n      dup2\n      tag_164\n      jumpi\n      invalid\n    tag_164:\n      div\n        /* \"contracts/utils/HomoraMath.sol\":1383:1384  r */\n      dup3\n        /* \"contracts/utils/HomoraMath.sol\":1383:1392  r + x / r */\n      add\n        /* \"contracts/utils/HomoraMath.sol\":1382:1398  (r + x / r) >> 1 */\n      swap1\n      shr\n        /* \"contracts/utils/HomoraMath.sol\":1378:1398  r = (r + x / r) >> 1 */\n      swap1\n      pop\n        /* \"contracts/utils/HomoraMath.sol\":1423:1424  1 */\n      0x01\n        /* \"contracts/utils/HomoraMath.sol\":1417:1418  r */\n      dup2\n        /* \"contracts/utils/HomoraMath.sol\":1413:1414  x */\n      dup6\n        /* \"contracts/utils/HomoraMath.sol\":1413:1418  x / r */\n      dup2\n      tag_165\n      jumpi\n      invalid\n    tag_165:\n      div\n        /* \"contracts/utils/HomoraMath.sol\":1409:1410  r */\n      dup3\n        /* \"contracts/utils/HomoraMath.sol\":1409:1418  r + x / r */\n      add\n        /* \"contracts/utils/HomoraMath.sol\":1408:1424  (r + x / r) >> 1 */\n      swap1\n      shr\n        /* \"contracts/utils/HomoraMath.sol\":1404:1424  r = (r + x / r) >> 1 */\n      swap1\n      pop\n        /* \"contracts/utils/HomoraMath.sol\":1449:1450  1 */\n      0x01\n        /* \"contracts/utils/HomoraMath.sol\":1443:1444  r */\n      dup2\n        /* \"contracts/utils/HomoraMath.sol\":1439:1440  x */\n      dup6\n        /* \"contracts/utils/HomoraMath.sol\":1439:1444  x / r */\n      dup2\n      tag_166\n      jumpi\n      invalid\n    tag_166:\n      div\n        /* \"contracts/utils/HomoraMath.sol\":1435:1436  r */\n      dup3\n        /* \"contracts/utils/HomoraMath.sol\":1435:1444  r + x / r */\n      add\n        /* \"contracts/utils/HomoraMath.sol\":1434:1450  (r + x / r) >> 1 */\n      swap1\n      shr\n        /* \"contracts/utils/HomoraMath.sol\":1430:1450  r = (r + x / r) >> 1 */\n      swap1\n      pop\n        /* \"contracts/utils/HomoraMath.sol\":1475:1476  1 */\n      0x01\n        /* \"contracts/utils/HomoraMath.sol\":1469:1470  r */\n      dup2\n        /* \"contracts/utils/HomoraMath.sol\":1465:1466  x */\n      dup6\n        /* \"contracts/utils/HomoraMath.sol\":1465:1470  x / r */\n      dup2\n      tag_167\n      jumpi\n      invalid\n    tag_167:\n      div\n        /* \"contracts/utils/HomoraMath.sol\":1461:1462  r */\n      dup3\n        /* \"contracts/utils/HomoraMath.sol\":1461:1470  r + x / r */\n      add\n        /* \"contracts/utils/HomoraMath.sol\":1460:1476  (r + x / r) >> 1 */\n      swap1\n      shr\n        /* \"contracts/utils/HomoraMath.sol\":1456:1476  r = (r + x / r) >> 1 */\n      swap1\n      pop\n        /* \"contracts/utils/HomoraMath.sol\":1501:1502  1 */\n      0x01\n        /* \"contracts/utils/HomoraMath.sol\":1495:1496  r */\n      dup2\n        /* \"contracts/utils/HomoraMath.sol\":1491:1492  x */\n      dup6\n        /* \"contracts/utils/HomoraMath.sol\":1491:1496  x / r */\n      dup2\n      tag_168\n      jumpi\n      invalid\n    tag_168:\n      div\n        /* \"contracts/utils/HomoraMath.sol\":1487:1488  r */\n      dup3\n        /* \"contracts/utils/HomoraMath.sol\":1487:1496  r + x / r */\n      add\n        /* \"contracts/utils/HomoraMath.sol\":1486:1502  (r + x / r) >> 1 */\n      swap1\n      shr\n        /* \"contracts/utils/HomoraMath.sol\":1482:1502  r = (r + x / r) >> 1 */\n      swap1\n      pop\n        /* \"contracts/utils/HomoraMath.sol\":1527:1528  1 */\n      0x01\n        /* \"contracts/utils/HomoraMath.sol\":1521:1522  r */\n      dup2\n        /* \"contracts/utils/HomoraMath.sol\":1517:1518  x */\n      dup6\n        /* \"contracts/utils/HomoraMath.sol\":1517:1522  x / r */\n      dup2\n      tag_169\n      jumpi\n      invalid\n    tag_169:\n      div\n        /* \"contracts/utils/HomoraMath.sol\":1513:1514  r */\n      dup3\n        /* \"contracts/utils/HomoraMath.sol\":1513:1522  r + x / r */\n      add\n        /* \"contracts/utils/HomoraMath.sol\":1512:1528  (r + x / r) >> 1 */\n      swap1\n      shr\n        /* \"contracts/utils/HomoraMath.sol\":1508:1528  r = (r + x / r) >> 1 */\n      swap1\n      pop\n        /* \"contracts/utils/HomoraMath.sol\":1553:1554  1 */\n      0x01\n        /* \"contracts/utils/HomoraMath.sol\":1547:1548  r */\n      dup2\n        /* \"contracts/utils/HomoraMath.sol\":1543:1544  x */\n      dup6\n        /* \"contracts/utils/HomoraMath.sol\":1543:1548  x / r */\n      dup2\n      tag_170\n      jumpi\n      invalid\n    tag_170:\n      div\n        /* \"contracts/utils/HomoraMath.sol\":1539:1540  r */\n      dup3\n        /* \"contracts/utils/HomoraMath.sol\":1539:1548  r + x / r */\n      add\n        /* \"contracts/utils/HomoraMath.sol\":1538:1554  (r + x / r) >> 1 */\n      swap1\n      shr\n        /* \"contracts/utils/HomoraMath.sol\":1534:1554  r = (r + x / r) >> 1 */\n      swap1\n      pop\n        /* \"contracts/utils/HomoraMath.sol\":1597:1604  uint r1 */\n      0x00\n        /* \"contracts/utils/HomoraMath.sol\":1611:1612  r */\n      dup2\n        /* \"contracts/utils/HomoraMath.sol\":1607:1608  x */\n      dup6\n        /* \"contracts/utils/HomoraMath.sol\":1607:1612  x / r */\n      dup2\n      tag_171\n      jumpi\n      invalid\n    tag_171:\n      div\n        /* \"contracts/utils/HomoraMath.sol\":1597:1612  uint r1 = x / r */\n      swap1\n      pop\n        /* \"contracts/utils/HomoraMath.sol\":1630:1632  r1 */\n      dup1\n        /* \"contracts/utils/HomoraMath.sol\":1626:1627  r */\n      dup3\n        /* \"contracts/utils/HomoraMath.sol\":1626:1632  r < r1 */\n      lt\n        /* \"contracts/utils/HomoraMath.sol\":1626:1641  r < r1 ? r : r1 */\n      tag_172\n      jumpi\n        /* \"contracts/utils/HomoraMath.sol\":1639:1641  r1 */\n      dup1\n        /* \"contracts/utils/HomoraMath.sol\":1626:1641  r < r1 ? r : r1 */\n      jump(tag_173)\n    tag_172:\n        /* \"contracts/utils/HomoraMath.sol\":1635:1636  r */\n      dup2\n        /* \"contracts/utils/HomoraMath.sol\":1626:1641  r < r1 ? r : r1 */\n    tag_173:\n        /* \"contracts/utils/HomoraMath.sol\":1618:1642  return (r < r1 ? r : r1) */\n      swap4\n      pop\n      pop\n      pop\n      pop\n        /* \"contracts/utils/HomoraMath.sol\":798:1647  function sqrt(uint x) internal pure returns (uint) {... */\n    tag_155:\n      swap2\n      swap1\n      pop\n      jump\t// out\n        /* \"contracts/utils/HomoraMath.sol\":456:558  function fdiv(uint lhs, uint rhs) internal pure returns (uint) {... */\n    tag_76:\n        /* \"contracts/utils/HomoraMath.sol\":513:517  uint */\n      0x00\n        /* \"contracts/utils/HomoraMath.sol\":550:553  rhs */\n      dup2\n        /* \"contracts/utils/HomoraMath.sol\":532:547  lhs.mul(2**112) */\n      tag_175\n        /* \"contracts/utils/HomoraMath.sol\":540:546  2**112 */\n      0x010000000000000000000000000000\n        /* \"contracts/utils/HomoraMath.sol\":532:535  lhs */\n      dup6\n        /* \"contracts/utils/HomoraMath.sol\":532:539  lhs.mul */\n      tag_74\n      swap1\n        /* \"contracts/utils/HomoraMath.sol\":532:547  lhs.mul(2**112) */\n      swap2\n      swap1\n      0xffffffff\n      and\n      jump\t// in\n    tag_175:\n        /* \"contracts/utils/HomoraMath.sol\":532:553  lhs.mul(2**112) / rhs */\n      dup2\n      tag_176\n      jumpi\n      invalid\n    tag_176:\n      div\n        /* \"contracts/utils/HomoraMath.sol\":525:553  return lhs.mul(2**112) / rhs */\n      swap1\n      pop\n        /* \"contracts/utils/HomoraMath.sol\":456:558  function fdiv(uint lhs, uint rhs) internal pure returns (uint) {... */\n      swap3\n      swap2\n      pop\n      pop\n      jump\t// out\n        /* \"@openzeppelin/contracts/math/SafeMath.sol\":4217:4367  function div(uint256 a, uint256 b) internal pure returns (uint256) {... */\n    tag_88:\n        /* \"@openzeppelin/contracts/math/SafeMath.sol\":4275:4282  uint256 */\n      0x00\n        /* \"@openzeppelin/contracts/math/SafeMath.sol\":4306:4307  0 */\n      dup1\n        /* \"@openzeppelin/contracts/math/SafeMath.sol\":4302:4303  b */\n      dup3\n        /* \"@openzeppelin/contracts/math/SafeMath.sol\":4302:4307  b > 0 */\n      gt\n        /* \"@openzeppelin/contracts/math/SafeMath.sol\":4294:4338  require(b > 0, \"SafeMath: division by zero\") */\n      tag_178\n      jumpi\n      mload(0x40)\n      0x08c379a000000000000000000000000000000000000000000000000000000000\n      dup2\n      mstore\n      0x04\n      add\n      dup1\n      dup1\n      0x20\n      add\n      dup3\n      dup2\n      sub\n      dup3\n      mstore\n      0x1a\n      dup2\n      mstore\n      0x20\n      add\n      dup1\n      0x536166654d6174683a206469766973696f6e206279207a65726f000000000000\n      dup2\n      mstore\n      pop\n      0x20\n      add\n      swap2\n      pop\n      pop\n      mload(0x40)\n      dup1\n      swap2\n      sub\n      swap1\n      revert\n    tag_178:\n        /* \"@openzeppelin/contracts/math/SafeMath.sol\":4359:4360  b */\n      dup2\n        /* \"@openzeppelin/contracts/math/SafeMath.sol\":4355:4356  a */\n      dup4\n        /* \"@openzeppelin/contracts/math/SafeMath.sol\":4355:4360  a / b */\n      dup2\n      tag_179\n      jumpi\n      invalid\n    tag_179:\n      div\n        /* \"@openzeppelin/contracts/math/SafeMath.sol\":4348:4360  return a / b */\n      swap1\n      pop\n        /* \"@openzeppelin/contracts/math/SafeMath.sol\":4217:4367  function div(uint256 a, uint256 b) internal pure returns (uint256) {... */\n      swap3\n      swap2\n      pop\n      pop\n      jump\t// out\n    stop\n    data_9113bb53c2876a3805b2c9242029423fc540a728243ce887ab24c82cf119fba3 536166654d6174683a206d756c7469706c69636174696f6e206f766572666c6f77\n\n    auxdata: 0xa26469706673582212208da844d7d46380fd2f927ba2df86cff208812c57ca83a09f9eab5a9cc11b275364736f6c634300060c0033\n}\n",
				"bytecode": {
					"linkReferences": {},
					"object": "60806040527310ed43c718714eb63d5aa57b78b54704e256024e600160006101000a81548173ffffffffffffffffffffffffffffffffffffffff021916908373ffffffffffffffffffffffffffffffffffffffff160217905550736b6b2d8166d13b58155b8d454f239ae3691257a6600260006101000a81548173ffffffffffffffffffffffffffffffffffffffff021916908373ffffffffffffffffffffffffffffffffffffffff160217905550662386f26fc1000060035567016345785d8a0000600455600e6005553480156100d657600080fd5b506000339050806000806101000a81548173ffffffffffffffffffffffffffffffffffffffff021916908373ffffffffffffffffffffffffffffffffffffffff1602179055508073ffffffffffffffffffffffffffffffffffffffff16600073ffffffffffffffffffffffffffffffffffffffff167f8be0079c531659141344cd1fd0a4f28419497f9722a3daafe3b4186f6b6457e060405160405180910390a35061181d806101876000396000f3fe608060405234801561001057600080fd5b50600436106101005760003560e01c8063937b1d2411610097578063c0019e2311610066578063c0019e2314610365578063d02641a014610383578063e136f65f146103db578063f2fde38b146103f957610100565b8063937b1d241461026757806394217ebc14610295578063ab9aadfe146102d9578063ba6f43e61461033157610100565b806355a1ace8116100d357806355a1ace81461018d5780636276e479146101d15780638da5cb5b146102055780638f075e7f1461023957610100565b80630c2804441461010557806322a25421146101235780634251f8ba146101415780634e7027691461015f575b600080fd5b61010d61043d565b6040518082815260200191505060405180910390f35b61012b610761565b6040518082815260200191505060405180910390f35b61014961077e565b6040518082815260200191505060405180910390f35b61018b6004803603602081101561017557600080fd5b8101908080359060200190929190505050610784565b005b6101cf600480360360208110156101a357600080fd5b81019080803573ffffffffffffffffffffffffffffffffffffffff1690602001909291905050506108a5565b005b6101d9610a00565b604051808273ffffffffffffffffffffffffffffffffffffffff16815260200191505060405180910390f35b61020d610a26565b604051808273ffffffffffffffffffffffffffffffffffffffff16815260200191505060405180910390f35b6102656004803603602081101561024f57600080fd5b8101908080359060200190929190505050610a4f565b005b6102936004803603602081101561027d57600080fd5b8101908080359060200190929190505050610b70565b005b6102d7600480360360208110156102ab57600080fd5b81019080803573ffffffffffffffffffffffffffffffffffffffff169060200190929190505050610c91565b005b61031b600480360360208110156102ef57600080fd5b81019080803573ffffffffffffffffffffffffffffffffffffffff169060200190929190505050610dec565b6040518082815260200191505060405180910390f35b6103396110ce565b604051808273ffffffffffffffffffffffffffffffffffffffff16815260200191505060405180910390f35b61036d6110f4565b6040518082815260200191505060405180910390f35b6103c56004803603602081101561039957600080fd5b81019080803573ffffffffffffffffffffffffffffffffffffffff1690602001909291905050506110fa565b6040518082815260200191505060405180910390f35b6103e3611288565b6040518082815260200191505060405180910390f35b61043b6004803603602081101561040f57600080fd5b81019080803573ffffffffffffffffffffffffffffffffffffffff16906020019092919050505061128e565b005b600080600260009054906101000a900473ffffffffffffffffffffffffffffffffffffffff1673ffffffffffffffffffffffffffffffffffffffff166318160ddd6040518163ffffffff1660e01b815260040160206040518083038186803b1580156104a857600080fd5b505afa1580156104bc573d6000803e3d6000fd5b505050506040513d60208110156104d257600080fd5b81019080805190602001909291905050509050600080600260009054906101000a900473ffffffffffffffffffffffffffffffffffffffff1673ffffffffffffffffffffffffffffffffffffffff16630902f1ac6040518163ffffffff1660e01b815260040160606040518083038186803b15801561055057600080fd5b505afa158015610564573d6000803e3d6000fd5b505050506040513d606081101561057a57600080fd5b81019080805190602001909291908051906020019092919080519060200190929190505050506dffffffffffffffffffffffffffff1691506dffffffffffffffffffffffffffff16915060006105f3846105e56105e0858761150590919063ffffffff16565b61158b565b61170890919063ffffffff16565b90506000600160009054906101000a900473ffffffffffffffffffffffffffffffffffffffff1673ffffffffffffffffffffffffffffffffffffffff166385f8c25960035486866040518463ffffffff1660e01b815260040180848152602001838152602001828152602001935050505060206040518083038186803b15801561067c57600080fd5b505afa158015610690573d6000803e3d6000fd5b505050506040513d60208110156106a657600080fd5b8101908080519060200190929190505050905060006003549050600061073e6701000000000000006107306106da8561158b565b6107226701000000000000006107146106f28a61158b565b61070660028d61150590919063ffffffff16565b61150590919063ffffffff16565b61173d90919063ffffffff16565b61150590919063ffffffff16565b61173d90919063ffffffff16565b90506000600554600a0a828161075057fe5b049050809850505050505050505090565b600080600554600a0a6004548161077457fe5b0490508091505090565b60055481565b3373ffffffffffffffffffffffffffffffffffffffff1660008054906101000a900473ffffffffffffffffffffffffffffffffffffffff1673ffffffffffffffffffffffffffffffffffffffff16148061082957503373ffffffffffffffffffffffffffffffffffffffff1660008054906101000a900473ffffffffffffffffffffffffffffffffffffffff1673ffffffffffffffffffffffffffffffffffffffff16145b61089b576040517f08c379a00000000000000000000000000000000000000000000000000000000081526004018080602001828103825260068152602001807f216f776e6572000000000000000000000000000000000000000000000000000081525060200191505060405180910390fd5b8060048190555050565b3373ffffffffffffffffffffffffffffffffffffffff1660008054906101000a900473ffffffffffffffffffffffffffffffffffffffff1673ffffffffffffffffffffffffffffffffffffffff16148061094a57503373ffffffffffffffffffffffffffffffffffffffff1660008054906101000a900473ffffffffffffffffffffffffffffffffffffffff1673ffffffffffffffffffffffffffffffffffffffff16145b6109bc576040517f08c379a00000000000000000000000000000000000000000000000000000000081526004018080602001828103825260068152602001807f216f776e6572000000000000000000000000000000000000000000000000000081525060200191505060405180910390fd5b80600260006101000a81548173ffffffffffffffffffffffffffffffffffffffff021916908373ffffffffffffffffffffffffffffffffffffffff16021790555050565b600260009054906101000a900473ffffffffffffffffffffffffffffffffffffffff1681565b60008060009054906101000a900473ffffffffffffffffffffffffffffffffffffffff16905090565b3373ffffffffffffffffffffffffffffffffffffffff1660008054906101000a900473ffffffffffffffffffffffffffffffffffffffff1673ffffffffffffffffffffffffffffffffffffffff161480610af457503373ffffffffffffffffffffffffffffffffffffffff1660008054906101000a900473ffffffffffffffffffffffffffffffffffffffff1673ffffffffffffffffffffffffffffffffffffffff16145b610b66576040517f08c379a00000000000000000000000000000000000000000000000000000000081526004018080602001828103825260068152602001807f216f776e6572000000000000000000000000000000000000000000000000000081525060200191505060405180910390fd5b8060058190555050565b3373ffffffffffffffffffffffffffffffffffffffff1660008054906101000a900473ffffffffffffffffffffffffffffffffffffffff1673ffffffffffffffffffffffffffffffffffffffff161480610c1557503373ffffffffffffffffffffffffffffffffffffffff1660008054906101000a900473ffffffffffffffffffffffffffffffffffffffff1673ffffffffffffffffffffffffffffffffffffffff16145b610c87576040517f08c379a00000000000000000000000000000000000000000000000000000000081526004018080602001828103825260068152602001807f216f776e6572000000000000000000000000000000000000000000000000000081525060200191505060405180910390fd5b8060038190555050565b3373ffffffffffffffffffffffffffffffffffffffff1660008054906101000a900473ffffffffffffffffffffffffffffffffffffffff1673ffffffffffffffffffffffffffffffffffffffff161480610d3657503373ffffffffffffffffffffffffffffffffffffffff1660008054906101000a900473ffffffffffffffffffffffffffffffffffffffff1673ffffffffffffffffffffffffffffffffffffffff16145b610da8576040517f08c379a00000000000000000000000000000000000000000000000000000000081526004018080602001828103825260068152602001807f216f776e6572000000000000000000000000000000000000000000000000000081525060200191505060405180910390fd5b80600160006101000a81548173ffffffffffffffffffffffffffffffffffffffff021916908373ffffffffffffffffffffffffffffffffffffffff16021790555050565b6000808273ffffffffffffffffffffffffffffffffffffffff166318160ddd6040518163ffffffff1660e01b815260040160206040518083038186803b158015610e3557600080fd5b505afa158015610e49573d6000803e3d6000fd5b505050506040513d6020811015610e5f57600080fd5b810190808051906020019092919050505090506000808473ffffffffffffffffffffffffffffffffffffffff16630902f1ac6040518163ffffffff1660e01b815260040160606040518083038186803b158015610ebb57600080fd5b505afa158015610ecf573d6000803e3d6000fd5b505050506040513d6060811015610ee557600080fd5b81019080805190602001909291908051906020019092919080519060200190929190505050506dffffffffffffffffffffffffffff1691506dffffffffffffffffffffffffffff1691506000610f5e84610f50610f4b858761150590919063ffffffff16565b61158b565b61170890919063ffffffff16565b90506000600160009054906101000a900473ffffffffffffffffffffffffffffffffffffffff1673ffffffffffffffffffffffffffffffffffffffff166385f8c25960035486866040518463ffffffff1660e01b815260040180848152602001838152602001828152602001935050505060206040518083038186803b158015610fe757600080fd5b505afa158015610ffb573d6000803e3d6000fd5b505050506040513d602081101561101157600080fd5b810190808051906020019092919050505090506000600354905060006110a967010000000000000061109b6110458561158b565b61108d67010000000000000061107f61105d8a61158b565b61107160028d61150590919063ffffffff16565b61150590919063ffffffff16565b61173d90919063ffffffff16565b61150590919063ffffffff16565b61173d90919063ffffffff16565b90506000600554600a0a82816110bb57fe5b0490508098505050505050505050919050565b600160009054906101000a900473ffffffffffffffffffffffffffffffffffffffff1681565b60045481565b60008060008373ffffffffffffffffffffffffffffffffffffffff16630902f1ac6040518163ffffffff1660e01b815260040160606040518083038186803b15801561114557600080fd5b505afa158015611159573d6000803e3d6000fd5b505050506040513d606081101561116f57600080fd5b81019080805190602001909291908051906020019092919080519060200190929190505050506dffffffffffffffffffffffffffff1691506dffffffffffffffffffffffffffff1691506000600160009054906101000a900473ffffffffffffffffffffffffffffffffffffffff1673ffffffffffffffffffffffffffffffffffffffff166385f8c25960035485856040518463ffffffff1660e01b815260040180848152602001838152602001828152602001935050505060206040518083038186803b15801561124057600080fd5b505afa158015611254573d6000803e3d6000fd5b505050506040513d602081101561126a57600080fd5b81019080805190602001909291905050509050809350505050919050565b60035481565b3373ffffffffffffffffffffffffffffffffffffffff1660008054906101000a900473ffffffffffffffffffffffffffffffffffffffff1673ffffffffffffffffffffffffffffffffffffffff16148061133357503373ffffffffffffffffffffffffffffffffffffffff1660008054906101000a900473ffffffffffffffffffffffffffffffffffffffff1673ffffffffffffffffffffffffffffffffffffffff16145b6113a5576040517f08c379a00000000000000000000000000000000000000000000000000000000081526004018080602001828103825260068152602001807f216f776e6572000000000000000000000000000000000000000000000000000081525060200191505060405180910390fd5b600073ffffffffffffffffffffffffffffffffffffffff168173ffffffffffffffffffffffffffffffffffffffff161415611448576040517f08c379a00000000000000000000000000000000000000000000000000000000081526004018080602001828103825260088152602001807f6e6577206973203000000000000000000000000000000000000000000000000081525060200191505060405180910390fd5b8073ffffffffffffffffffffffffffffffffffffffff1660008054906101000a900473ffffffffffffffffffffffffffffffffffffffff1673ffffffffffffffffffffffffffffffffffffffff167f8be0079c531659141344cd1fd0a4f28419497f9722a3daafe3b4186f6b6457e060405160405180910390a3806000806101000a81548173ffffffffffffffffffffffffffffffffffffffff021916908373ffffffffffffffffffffffffffffffffffffffff16021790555050565b6000808314156115185760009050611585565b600082840290508284828161152957fe5b0414611580576040517f08c379a00000000000000000000000000000000000000000000000000000000081526004018080602001828103825260218152602001806117c76021913960400191505060405180910390fd5b809150505b92915050565b60008082141561159e5760009050611703565b600082905060006001905070010000000000000000000000000000000082106115d057608082901c9150604081901b90505b6801000000000000000082106115ef57604082901c9150602081901b90505b640100000000821061160a57602082901c9150601081901b90505b62010000821061162357601082901c9150600881901b90505b610100821061163b57600882901c9150600481901b90505b6010821061165257600482901c9150600281901b90505b6008821061166257600181901b90505b600181858161166d57fe5b048201901c9050600181858161167f57fe5b048201901c9050600181858161169157fe5b048201901c905060018185816116a357fe5b048201901c905060018185816116b557fe5b048201901c905060018185816116c757fe5b048201901c905060018185816116d957fe5b048201901c905060008185816116eb57fe5b0490508082106116fb57806116fd565b815b93505050505b919050565b60008161172d6e0100000000000000000000000000008561150590919063ffffffff16565b8161173457fe5b04905092915050565b60008082116117b4576040517f08c379a000000000000000000000000000000000000000000000000000000000815260040180806020018281038252601a8152602001807f536166654d6174683a206469766973696f6e206279207a65726f00000000000081525060200191505060405180910390fd5b8183816117bd57fe5b0490509291505056fe536166654d6174683a206d756c7469706c69636174696f6e206f766572666c6f77a26469706673582212208da844d7d46380fd2f927ba2df86cff208812c57ca83a09f9eab5a9cc11b275364736f6c634300060c0033",
					"opcodes": "PUSH1 0x80 PUSH1 0x40 MSTORE PUSH20 0x10ED43C718714EB63D5AA57B78B54704E256024E PUSH1 0x1 PUSH1 0x0 PUSH2 0x100 EXP DUP2 SLOAD DUP2 PUSH20 0xFFFFFFFFFFFFFFFFFFFFFFFFFFFFFFFFFFFFFFFF MUL NOT AND SWAP1 DUP4 PUSH20 0xFFFFFFFFFFFFFFFFFFFFFFFFFFFFFFFFFFFFFFFF AND MUL OR SWAP1 SSTORE POP PUSH20 0x6B6B2D8166D13B58155B8D454F239AE3691257A6 PUSH1 0x2 PUSH1 0x0 PUSH2 0x100 EXP DUP2 SLOAD DUP2 PUSH20 0xFFFFFFFFFFFFFFFFFFFFFFFFFFFFFFFFFFFFFFFF MUL NOT AND SWAP1 DUP4 PUSH20 0xFFFFFFFFFFFFFFFFFFFFFFFFFFFFFFFFFFFFFFFF AND MUL OR SWAP1 SSTORE POP PUSH7 0x2386F26FC10000 PUSH1 0x3 SSTORE PUSH8 0x16345785D8A0000 PUSH1 0x4 SSTORE PUSH1 0xE PUSH1 0x5 SSTORE CALLVALUE DUP1 ISZERO PUSH2 0xD6 JUMPI PUSH1 0x0 DUP1 REVERT JUMPDEST POP PUSH1 0x0 CALLER SWAP1 POP DUP1 PUSH1 0x0 DUP1 PUSH2 0x100 EXP DUP2 SLOAD DUP2 PUSH20 0xFFFFFFFFFFFFFFFFFFFFFFFFFFFFFFFFFFFFFFFF MUL NOT AND SWAP1 DUP4 PUSH20 0xFFFFFFFFFFFFFFFFFFFFFFFFFFFFFFFFFFFFFFFF AND MUL OR SWAP1 SSTORE POP DUP1 PUSH20 0xFFFFFFFFFFFFFFFFFFFFFFFFFFFFFFFFFFFFFFFF AND PUSH1 0x0 PUSH20 0xFFFFFFFFFFFFFFFFFFFFFFFFFFFFFFFFFFFFFFFF AND PUSH32 0x8BE0079C531659141344CD1FD0A4F28419497F9722A3DAAFE3B4186F6B6457E0 PUSH1 0x40 MLOAD PUSH1 0x40 MLOAD DUP1 SWAP2 SUB SWAP1 LOG3 POP PUSH2 0x181D DUP1 PUSH2 0x187 PUSH1 0x0 CODECOPY PUSH1 0x0 RETURN INVALID PUSH1 0x80 PUSH1 0x40 MSTORE CALLVALUE DUP1 ISZERO PUSH2 0x10 JUMPI PUSH1 0x0 DUP1 REVERT JUMPDEST POP PUSH1 0x4 CALLDATASIZE LT PUSH2 0x100 JUMPI PUSH1 0x0 CALLDATALOAD PUSH1 0xE0 SHR DUP1 PUSH4 0x937B1D24 GT PUSH2 0x97 JUMPI DUP1 PUSH4 0xC0019E23 GT PUSH2 0x66 JUMPI DUP1 PUSH4 0xC0019E23 EQ PUSH2 0x365 JUMPI DUP1 PUSH4 0xD02641A0 EQ PUSH2 0x383 JUMPI DUP1 PUSH4 0xE136F65F EQ PUSH2 0x3DB JUMPI DUP1 PUSH4 0xF2FDE38B EQ PUSH2 0x3F9 JUMPI PUSH2 0x100 JUMP JUMPDEST DUP1 PUSH4 0x937B1D24 EQ PUSH2 0x267 JUMPI DUP1 PUSH4 0x94217EBC EQ PUSH2 0x295 JUMPI DUP1 PUSH4 0xAB9AADFE EQ PUSH2 0x2D9 JUMPI DUP1 PUSH4 0xBA6F43E6 EQ PUSH2 0x331 JUMPI PUSH2 0x100 JUMP JUMPDEST DUP1 PUSH4 0x55A1ACE8 GT PUSH2 0xD3 JUMPI DUP1 PUSH4 0x55A1ACE8 EQ PUSH2 0x18D JUMPI DUP1 PUSH4 0x6276E479 EQ PUSH2 0x1D1 JUMPI DUP1 PUSH4 0x8DA5CB5B EQ PUSH2 0x205 JUMPI DUP1 PUSH4 0x8F075E7F EQ PUSH2 0x239 JUMPI PUSH2 0x100 JUMP JUMPDEST DUP1 PUSH4 0xC280444 EQ PUSH2 0x105 JUMPI DUP1 PUSH4 0x22A25421 EQ PUSH2 0x123 JUMPI DUP1 PUSH4 0x4251F8BA EQ PUSH2 0x141 JUMPI DUP1 PUSH4 0x4E702769 EQ PUSH2 0x15F JUMPI JUMPDEST PUSH1 0x0 DUP1 REVERT JUMPDEST PUSH2 0x10D PUSH2 0x43D JUMP JUMPDEST PUSH1 0x40 MLOAD DUP1 DUP3 DUP2 MSTORE PUSH1 0x20 ADD SWAP2 POP POP PUSH1 0x40 MLOAD DUP1 SWAP2 SUB SWAP1 RETURN JUMPDEST PUSH2 0x12B PUSH2 0x761 JUMP JUMPDEST PUSH1 0x40 MLOAD DUP1 DUP3 DUP2 MSTORE PUSH1 0x20 ADD SWAP2 POP POP PUSH1 0x40 MLOAD DUP1 SWAP2 SUB SWAP1 RETURN JUMPDEST PUSH2 0x149 PUSH2 0x77E JUMP JUMPDEST PUSH1 0x40 MLOAD DUP1 DUP3 DUP2 MSTORE PUSH1 0x20 ADD SWAP2 POP POP PUSH1 0x40 MLOAD DUP1 SWAP2 SUB SWAP1 RETURN JUMPDEST PUSH2 0x18B PUSH1 0x4 DUP1 CALLDATASIZE SUB PUSH1 0x20 DUP2 LT ISZERO PUSH2 0x175 JUMPI PUSH1 0x0 DUP1 REVERT JUMPDEST DUP2 ADD SWAP1 DUP1 DUP1 CALLDATALOAD SWAP1 PUSH1 0x20 ADD SWAP1 SWAP3 SWAP2 SWAP1 POP POP POP PUSH2 0x784 JUMP JUMPDEST STOP JUMPDEST PUSH2 0x1CF PUSH1 0x4 DUP1 CALLDATASIZE SUB PUSH1 0x20 DUP2 LT ISZERO PUSH2 0x1A3 JUMPI PUSH1 0x0 DUP1 REVERT JUMPDEST DUP2 ADD SWAP1 DUP1 DUP1 CALLDATALOAD PUSH20 0xFFFFFFFFFFFFFFFFFFFFFFFFFFFFFFFFFFFFFFFF AND SWAP1 PUSH1 0x20 ADD SWAP1 SWAP3 SWAP2 SWAP1 POP POP POP PUSH2 0x8A5 JUMP JUMPDEST STOP JUMPDEST PUSH2 0x1D9 PUSH2 0xA00 JUMP JUMPDEST PUSH1 0x40 MLOAD DUP1 DUP3 PUSH20 0xFFFFFFFFFFFFFFFFFFFFFFFFFFFFFFFFFFFFFFFF AND DUP2 MSTORE PUSH1 0x20 ADD SWAP2 POP POP PUSH1 0x40 MLOAD DUP1 SWAP2 SUB SWAP1 RETURN JUMPDEST PUSH2 0x20D PUSH2 0xA26 JUMP JUMPDEST PUSH1 0x40 MLOAD DUP1 DUP3 PUSH20 0xFFFFFFFFFFFFFFFFFFFFFFFFFFFFFFFFFFFFFFFF AND DUP2 MSTORE PUSH1 0x20 ADD SWAP2 POP POP PUSH1 0x40 MLOAD DUP1 SWAP2 SUB SWAP1 RETURN JUMPDEST PUSH2 0x265 PUSH1 0x4 DUP1 CALLDATASIZE SUB PUSH1 0x20 DUP2 LT ISZERO PUSH2 0x24F JUMPI PUSH1 0x0 DUP1 REVERT JUMPDEST DUP2 ADD SWAP1 DUP1 DUP1 CALLDATALOAD SWAP1 PUSH1 0x20 ADD SWAP1 SWAP3 SWAP2 SWAP1 POP POP POP PUSH2 0xA4F JUMP JUMPDEST STOP JUMPDEST PUSH2 0x293 PUSH1 0x4 DUP1 CALLDATASIZE SUB PUSH1 0x20 DUP2 LT ISZERO PUSH2 0x27D JUMPI PUSH1 0x0 DUP1 REVERT JUMPDEST DUP2 ADD SWAP1 DUP1 DUP1 CALLDATALOAD SWAP1 PUSH1 0x20 ADD SWAP1 SWAP3 SWAP2 SWAP1 POP POP POP PUSH2 0xB70 JUMP JUMPDEST STOP JUMPDEST PUSH2 0x2D7 PUSH1 0x4 DUP1 CALLDATASIZE SUB PUSH1 0x20 DUP2 LT ISZERO PUSH2 0x2AB JUMPI PUSH1 0x0 DUP1 REVERT JUMPDEST DUP2 ADD SWAP1 DUP1 DUP1 CALLDATALOAD PUSH20 0xFFFFFFFFFFFFFFFFFFFFFFFFFFFFFFFFFFFFFFFF AND SWAP1 PUSH1 0x20 ADD SWAP1 SWAP3 SWAP2 SWAP1 POP POP POP PUSH2 0xC91 JUMP JUMPDEST STOP JUMPDEST PUSH2 0x31B PUSH1 0x4 DUP1 CALLDATASIZE SUB PUSH1 0x20 DUP2 LT ISZERO PUSH2 0x2EF JUMPI PUSH1 0x0 DUP1 REVERT JUMPDEST DUP2 ADD SWAP1 DUP1 DUP1 CALLDATALOAD PUSH20 0xFFFFFFFFFFFFFFFFFFFFFFFFFFFFFFFFFFFFFFFF AND SWAP1 PUSH1 0x20 ADD SWAP1 SWAP3 SWAP2 SWAP1 POP POP POP PUSH2 0xDEC JUMP JUMPDEST PUSH1 0x40 MLOAD DUP1 DUP3 DUP2 MSTORE PUSH1 0x20 ADD SWAP2 POP POP PUSH1 0x40 MLOAD DUP1 SWAP2 SUB SWAP1 RETURN JUMPDEST PUSH2 0x339 PUSH2 0x10CE JUMP JUMPDEST PUSH1 0x40 MLOAD DUP1 DUP3 PUSH20 0xFFFFFFFFFFFFFFFFFFFFFFFFFFFFFFFFFFFFFFFF AND DUP2 MSTORE PUSH1 0x20 ADD SWAP2 POP POP PUSH1 0x40 MLOAD DUP1 SWAP2 SUB SWAP1 RETURN JUMPDEST PUSH2 0x36D PUSH2 0x10F4 JUMP JUMPDEST PUSH1 0x40 MLOAD DUP1 DUP3 DUP2 MSTORE PUSH1 0x20 ADD SWAP2 POP POP PUSH1 0x40 MLOAD DUP1 SWAP2 SUB SWAP1 RETURN JUMPDEST PUSH2 0x3C5 PUSH1 0x4 DUP1 CALLDATASIZE SUB PUSH1 0x20 DUP2 LT ISZERO PUSH2 0x399 JUMPI PUSH1 0x0 DUP1 REVERT JUMPDEST DUP2 ADD SWAP1 DUP1 DUP1 CALLDATALOAD PUSH20 0xFFFFFFFFFFFFFFFFFFFFFFFFFFFFFFFFFFFFFFFF AND SWAP1 PUSH1 0x20 ADD SWAP1 SWAP3 SWAP2 SWAP1 POP POP POP PUSH2 0x10FA JUMP JUMPDEST PUSH1 0x40 MLOAD DUP1 DUP3 DUP2 MSTORE PUSH1 0x20 ADD SWAP2 POP POP PUSH1 0x40 MLOAD DUP1 SWAP2 SUB SWAP1 RETURN JUMPDEST PUSH2 0x3E3 PUSH2 0x1288 JUMP JUMPDEST PUSH1 0x40 MLOAD DUP1 DUP3 DUP2 MSTORE PUSH1 0x20 ADD SWAP2 POP POP PUSH1 0x40 MLOAD DUP1 SWAP2 SUB SWAP1 RETURN JUMPDEST PUSH2 0x43B PUSH1 0x4 DUP1 CALLDATASIZE SUB PUSH1 0x20 DUP2 LT ISZERO PUSH2 0x40F JUMPI PUSH1 0x0 DUP1 REVERT JUMPDEST DUP2 ADD SWAP1 DUP1 DUP1 CALLDATALOAD PUSH20 0xFFFFFFFFFFFFFFFFFFFFFFFFFFFFFFFFFFFFFFFF AND SWAP1 PUSH1 0x20 ADD SWAP1 SWAP3 SWAP2 SWAP1 POP POP POP PUSH2 0x128E JUMP JUMPDEST STOP JUMPDEST PUSH1 0x0 DUP1 PUSH1 0x2 PUSH1 0x0 SWAP1 SLOAD SWAP1 PUSH2 0x100 EXP SWAP1 DIV PUSH20 0xFFFFFFFFFFFFFFFFFFFFFFFFFFFFFFFFFFFFFFFF AND PUSH20 0xFFFFFFFFFFFFFFFFFFFFFFFFFFFFFFFFFFFFFFFF AND PUSH4 0x18160DDD PUSH1 0x40 MLOAD DUP2 PUSH4 0xFFFFFFFF AND PUSH1 0xE0 SHL DUP2 MSTORE PUSH1 0x4 ADD PUSH1 0x20 PUSH1 0x40 MLOAD DUP1 DUP4 SUB DUP2 DUP7 DUP1 EXTCODESIZE ISZERO DUP1 ISZERO PUSH2 0x4A8 JUMPI PUSH1 0x0 DUP1 REVERT JUMPDEST POP GAS STATICCALL ISZERO DUP1 ISZERO PUSH2 0x4BC JUMPI RETURNDATASIZE PUSH1 0x0 DUP1 RETURNDATACOPY RETURNDATASIZE PUSH1 0x0 REVERT JUMPDEST POP POP POP POP PUSH1 0x40 MLOAD RETURNDATASIZE PUSH1 0x20 DUP2 LT ISZERO PUSH2 0x4D2 JUMPI PUSH1 0x0 DUP1 REVERT JUMPDEST DUP2 ADD SWAP1 DUP1 DUP1 MLOAD SWAP1 PUSH1 0x20 ADD SWAP1 SWAP3 SWAP2 SWAP1 POP POP POP SWAP1 POP PUSH1 0x0 DUP1 PUSH1 0x2 PUSH1 0x0 SWAP1 SLOAD SWAP1 PUSH2 0x100 EXP SWAP1 DIV PUSH20 0xFFFFFFFFFFFFFFFFFFFFFFFFFFFFFFFFFFFFFFFF AND PUSH20 0xFFFFFFFFFFFFFFFFFFFFFFFFFFFFFFFFFFFFFFFF AND PUSH4 0x902F1AC PUSH1 0x40 MLOAD DUP2 PUSH4 0xFFFFFFFF AND PUSH1 0xE0 SHL DUP2 MSTORE PUSH1 0x4 ADD PUSH1 0x60 PUSH1 0x40 MLOAD DUP1 DUP4 SUB DUP2 DUP7 DUP1 EXTCODESIZE ISZERO DUP1 ISZERO PUSH2 0x550 JUMPI PUSH1 0x0 DUP1 REVERT JUMPDEST POP GAS STATICCALL ISZERO DUP1 ISZERO PUSH2 0x564 JUMPI RETURNDATASIZE PUSH1 0x0 DUP1 RETURNDATACOPY RETURNDATASIZE PUSH1 0x0 REVERT JUMPDEST POP POP POP POP PUSH1 0x40 MLOAD RETURNDATASIZE PUSH1 0x60 DUP2 LT ISZERO PUSH2 0x57A JUMPI PUSH1 0x0 DUP1 REVERT JUMPDEST DUP2 ADD SWAP1 DUP1 DUP1 MLOAD SWAP1 PUSH1 0x20 ADD SWAP1 SWAP3 SWAP2 SWAP1 DUP1 MLOAD SWAP1 PUSH1 0x20 ADD SWAP1 SWAP3 SWAP2 SWAP1 DUP1 MLOAD SWAP1 PUSH1 0x20 ADD SWAP1 SWAP3 SWAP2 SWAP1 POP POP POP POP PUSH14 0xFFFFFFFFFFFFFFFFFFFFFFFFFFFF AND SWAP2 POP PUSH14 0xFFFFFFFFFFFFFFFFFFFFFFFFFFFF AND SWAP2 POP PUSH1 0x0 PUSH2 0x5F3 DUP5 PUSH2 0x5E5 PUSH2 0x5E0 DUP6 DUP8 PUSH2 0x1505 SWAP1 SWAP2 SWAP1 PUSH4 0xFFFFFFFF AND JUMP JUMPDEST PUSH2 0x158B JUMP JUMPDEST PUSH2 0x1708 SWAP1 SWAP2 SWAP1 PUSH4 0xFFFFFFFF AND JUMP JUMPDEST SWAP1 POP PUSH1 0x0 PUSH1 0x1 PUSH1 0x0 SWAP1 SLOAD SWAP1 PUSH2 0x100 EXP SWAP1 DIV PUSH20 0xFFFFFFFFFFFFFFFFFFFFFFFFFFFFFFFFFFFFFFFF AND PUSH20 0xFFFFFFFFFFFFFFFFFFFFFFFFFFFFFFFFFFFFFFFF AND PUSH4 0x85F8C259 PUSH1 0x3 SLOAD DUP7 DUP7 PUSH1 0x40 MLOAD DUP5 PUSH4 0xFFFFFFFF AND PUSH1 0xE0 SHL DUP2 MSTORE PUSH1 0x4 ADD DUP1 DUP5 DUP2 MSTORE PUSH1 0x20 ADD DUP4 DUP2 MSTORE PUSH1 0x20 ADD DUP3 DUP2 MSTORE PUSH1 0x20 ADD SWAP4 POP POP POP POP PUSH1 0x20 PUSH1 0x40 MLOAD DUP1 DUP4 SUB DUP2 DUP7 DUP1 EXTCODESIZE ISZERO DUP1 ISZERO PUSH2 0x67C JUMPI PUSH1 0x0 DUP1 REVERT JUMPDEST POP GAS STATICCALL ISZERO DUP1 ISZERO PUSH2 0x690 JUMPI RETURNDATASIZE PUSH1 0x0 DUP1 RETURNDATACOPY RETURNDATASIZE PUSH1 0x0 REVERT JUMPDEST POP POP POP POP PUSH1 0x40 MLOAD RETURNDATASIZE PUSH1 0x20 DUP2 LT ISZERO PUSH2 0x6A6 JUMPI PUSH1 0x0 DUP1 REVERT JUMPDEST DUP2 ADD SWAP1 DUP1 DUP1 MLOAD SWAP1 PUSH1 0x20 ADD SWAP1 SWAP3 SWAP2 SWAP1 POP POP POP SWAP1 POP PUSH1 0x0 PUSH1 0x3 SLOAD SWAP1 POP PUSH1 0x0 PUSH2 0x73E PUSH8 0x100000000000000 PUSH2 0x730 PUSH2 0x6DA DUP6 PUSH2 0x158B JUMP JUMPDEST PUSH2 0x722 PUSH8 0x100000000000000 PUSH2 0x714 PUSH2 0x6F2 DUP11 PUSH2 0x158B JUMP JUMPDEST PUSH2 0x706 PUSH1 0x2 DUP14 PUSH2 0x1505 SWAP1 SWAP2 SWAP1 PUSH4 0xFFFFFFFF AND JUMP JUMPDEST PUSH2 0x1505 SWAP1 SWAP2 SWAP1 PUSH4 0xFFFFFFFF AND JUMP JUMPDEST PUSH2 0x173D SWAP1 SWAP2 SWAP1 PUSH4 0xFFFFFFFF AND JUMP JUMPDEST PUSH2 0x1505 SWAP1 SWAP2 SWAP1 PUSH4 0xFFFFFFFF AND JUMP JUMPDEST PUSH2 0x173D SWAP1 SWAP2 SWAP1 PUSH4 0xFFFFFFFF AND JUMP JUMPDEST SWAP1 POP PUSH1 0x0 PUSH1 0x5 SLOAD PUSH1 0xA EXP DUP3 DUP2 PUSH2 0x750 JUMPI INVALID JUMPDEST DIV SWAP1 POP DUP1 SWAP9 POP POP POP POP POP POP POP POP POP SWAP1 JUMP JUMPDEST PUSH1 0x0 DUP1 PUSH1 0x5 SLOAD PUSH1 0xA EXP PUSH1 0x4 SLOAD DUP2 PUSH2 0x774 JUMPI INVALID JUMPDEST DIV SWAP1 POP DUP1 SWAP2 POP POP SWAP1 JUMP JUMPDEST PUSH1 0x5 SLOAD DUP2 JUMP JUMPDEST CALLER PUSH20 0xFFFFFFFFFFFFFFFFFFFFFFFFFFFFFFFFFFFFFFFF AND PUSH1 0x0 DUP1 SLOAD SWAP1 PUSH2 0x100 EXP SWAP1 DIV PUSH20 0xFFFFFFFFFFFFFFFFFFFFFFFFFFFFFFFFFFFFFFFF AND PUSH20 0xFFFFFFFFFFFFFFFFFFFFFFFFFFFFFFFFFFFFFFFF AND EQ DUP1 PUSH2 0x829 JUMPI POP CALLER PUSH20 0xFFFFFFFFFFFFFFFFFFFFFFFFFFFFFFFFFFFFFFFF AND PUSH1 0x0 DUP1 SLOAD SWAP1 PUSH2 0x100 EXP SWAP1 DIV PUSH20 0xFFFFFFFFFFFFFFFFFFFFFFFFFFFFFFFFFFFFFFFF AND PUSH20 0xFFFFFFFFFFFFFFFFFFFFFFFFFFFFFFFFFFFFFFFF AND EQ JUMPDEST PUSH2 0x89B JUMPI PUSH1 0x40 MLOAD PUSH32 0x8C379A000000000000000000000000000000000000000000000000000000000 DUP2 MSTORE PUSH1 0x4 ADD DUP1 DUP1 PUSH1 0x20 ADD DUP3 DUP2 SUB DUP3 MSTORE PUSH1 0x6 DUP2 MSTORE PUSH1 0x20 ADD DUP1 PUSH32 0x216F776E65720000000000000000000000000000000000000000000000000000 DUP2 MSTORE POP PUSH1 0x20 ADD SWAP2 POP POP PUSH1 0x40 MLOAD DUP1 SWAP2 SUB SWAP1 REVERT JUMPDEST DUP1 PUSH1 0x4 DUP2 SWAP1 SSTORE POP POP JUMP JUMPDEST CALLER PUSH20 0xFFFFFFFFFFFFFFFFFFFFFFFFFFFFFFFFFFFFFFFF AND PUSH1 0x0 DUP1 SLOAD SWAP1 PUSH2 0x100 EXP SWAP1 DIV PUSH20 0xFFFFFFFFFFFFFFFFFFFFFFFFFFFFFFFFFFFFFFFF AND PUSH20 0xFFFFFFFFFFFFFFFFFFFFFFFFFFFFFFFFFFFFFFFF AND EQ DUP1 PUSH2 0x94A JUMPI POP CALLER PUSH20 0xFFFFFFFFFFFFFFFFFFFFFFFFFFFFFFFFFFFFFFFF AND PUSH1 0x0 DUP1 SLOAD SWAP1 PUSH2 0x100 EXP SWAP1 DIV PUSH20 0xFFFFFFFFFFFFFFFFFFFFFFFFFFFFFFFFFFFFFFFF AND PUSH20 0xFFFFFFFFFFFFFFFFFFFFFFFFFFFFFFFFFFFFFFFF AND EQ JUMPDEST PUSH2 0x9BC JUMPI PUSH1 0x40 MLOAD PUSH32 0x8C379A000000000000000000000000000000000000000000000000000000000 DUP2 MSTORE PUSH1 0x4 ADD DUP1 DUP1 PUSH1 0x20 ADD DUP3 DUP2 SUB DUP3 MSTORE PUSH1 0x6 DUP2 MSTORE PUSH1 0x20 ADD DUP1 PUSH32 0x216F776E65720000000000000000000000000000000000000000000000000000 DUP2 MSTORE POP PUSH1 0x20 ADD SWAP2 POP POP PUSH1 0x40 MLOAD DUP1 SWAP2 SUB SWAP1 REVERT JUMPDEST DUP1 PUSH1 0x2 PUSH1 0x0 PUSH2 0x100 EXP DUP2 SLOAD DUP2 PUSH20 0xFFFFFFFFFFFFFFFFFFFFFFFFFFFFFFFFFFFFFFFF MUL NOT AND SWAP1 DUP4 PUSH20 0xFFFFFFFFFFFFFFFFFFFFFFFFFFFFFFFFFFFFFFFF AND MUL OR SWAP1 SSTORE POP POP JUMP JUMPDEST PUSH1 0x2 PUSH1 0x0 SWAP1 SLOAD SWAP1 PUSH2 0x100 EXP SWAP1 DIV PUSH20 0xFFFFFFFFFFFFFFFFFFFFFFFFFFFFFFFFFFFFFFFF AND DUP2 JUMP JUMPDEST PUSH1 0x0 DUP1 PUSH1 0x0 SWAP1 SLOAD SWAP1 PUSH2 0x100 EXP SWAP1 DIV PUSH20 0xFFFFFFFFFFFFFFFFFFFFFFFFFFFFFFFFFFFFFFFF AND SWAP1 POP SWAP1 JUMP JUMPDEST CALLER PUSH20 0xFFFFFFFFFFFFFFFFFFFFFFFFFFFFFFFFFFFFFFFF AND PUSH1 0x0 DUP1 SLOAD SWAP1 PUSH2 0x100 EXP SWAP1 DIV PUSH20 0xFFFFFFFFFFFFFFFFFFFFFFFFFFFFFFFFFFFFFFFF AND PUSH20 0xFFFFFFFFFFFFFFFFFFFFFFFFFFFFFFFFFFFFFFFF AND EQ DUP1 PUSH2 0xAF4 JUMPI POP CALLER PUSH20 0xFFFFFFFFFFFFFFFFFFFFFFFFFFFFFFFFFFFFFFFF AND PUSH1 0x0 DUP1 SLOAD SWAP1 PUSH2 0x100 EXP SWAP1 DIV PUSH20 0xFFFFFFFFFFFFFFFFFFFFFFFFFFFFFFFFFFFFFFFF AND PUSH20 0xFFFFFFFFFFFFFFFFFFFFFFFFFFFFFFFFFFFFFFFF AND EQ JUMPDEST PUSH2 0xB66 JUMPI PUSH1 0x40 MLOAD PUSH32 0x8C379A000000000000000000000000000000000000000000000000000000000 DUP2 MSTORE PUSH1 0x4 ADD DUP1 DUP1 PUSH1 0x20 ADD DUP3 DUP2 SUB DUP3 MSTORE PUSH1 0x6 DUP2 MSTORE PUSH1 0x20 ADD DUP1 PUSH32 0x216F776E65720000000000000000000000000000000000000000000000000000 DUP2 MSTORE POP PUSH1 0x20 ADD SWAP2 POP POP PUSH1 0x40 MLOAD DUP1 SWAP2 SUB SWAP1 REVERT JUMPDEST DUP1 PUSH1 0x5 DUP2 SWAP1 SSTORE POP POP JUMP JUMPDEST CALLER PUSH20 0xFFFFFFFFFFFFFFFFFFFFFFFFFFFFFFFFFFFFFFFF AND PUSH1 0x0 DUP1 SLOAD SWAP1 PUSH2 0x100 EXP SWAP1 DIV PUSH20 0xFFFFFFFFFFFFFFFFFFFFFFFFFFFFFFFFFFFFFFFF AND PUSH20 0xFFFFFFFFFFFFFFFFFFFFFFFFFFFFFFFFFFFFFFFF AND EQ DUP1 PUSH2 0xC15 JUMPI POP CALLER PUSH20 0xFFFFFFFFFFFFFFFFFFFFFFFFFFFFFFFFFFFFFFFF AND PUSH1 0x0 DUP1 SLOAD SWAP1 PUSH2 0x100 EXP SWAP1 DIV PUSH20 0xFFFFFFFFFFFFFFFFFFFFFFFFFFFFFFFFFFFFFFFF AND PUSH20 0xFFFFFFFFFFFFFFFFFFFFFFFFFFFFFFFFFFFFFFFF AND EQ JUMPDEST PUSH2 0xC87 JUMPI PUSH1 0x40 MLOAD PUSH32 0x8C379A000000000000000000000000000000000000000000000000000000000 DUP2 MSTORE PUSH1 0x4 ADD DUP1 DUP1 PUSH1 0x20 ADD DUP3 DUP2 SUB DUP3 MSTORE PUSH1 0x6 DUP2 MSTORE PUSH1 0x20 ADD DUP1 PUSH32 0x216F776E65720000000000000000000000000000000000000000000000000000 DUP2 MSTORE POP PUSH1 0x20 ADD SWAP2 POP POP PUSH1 0x40 MLOAD DUP1 SWAP2 SUB SWAP1 REVERT JUMPDEST DUP1 PUSH1 0x3 DUP2 SWAP1 SSTORE POP POP JUMP JUMPDEST CALLER PUSH20 0xFFFFFFFFFFFFFFFFFFFFFFFFFFFFFFFFFFFFFFFF AND PUSH1 0x0 DUP1 SLOAD SWAP1 PUSH2 0x100 EXP SWAP1 DIV PUSH20 0xFFFFFFFFFFFFFFFFFFFFFFFFFFFFFFFFFFFFFFFF AND PUSH20 0xFFFFFFFFFFFFFFFFFFFFFFFFFFFFFFFFFFFFFFFF AND EQ DUP1 PUSH2 0xD36 JUMPI POP CALLER PUSH20 0xFFFFFFFFFFFFFFFFFFFFFFFFFFFFFFFFFFFFFFFF AND PUSH1 0x0 DUP1 SLOAD SWAP1 PUSH2 0x100 EXP SWAP1 DIV PUSH20 0xFFFFFFFFFFFFFFFFFFFFFFFFFFFFFFFFFFFFFFFF AND PUSH20 0xFFFFFFFFFFFFFFFFFFFFFFFFFFFFFFFFFFFFFFFF AND EQ JUMPDEST PUSH2 0xDA8 JUMPI PUSH1 0x40 MLOAD PUSH32 0x8C379A000000000000000000000000000000000000000000000000000000000 DUP2 MSTORE PUSH1 0x4 ADD DUP1 DUP1 PUSH1 0x20 ADD DUP3 DUP2 SUB DUP3 MSTORE PUSH1 0x6 DUP2 MSTORE PUSH1 0x20 ADD DUP1 PUSH32 0x216F776E65720000000000000000000000000000000000000000000000000000 DUP2 MSTORE POP PUSH1 0x20 ADD SWAP2 POP POP PUSH1 0x40 MLOAD DUP1 SWAP2 SUB SWAP1 REVERT JUMPDEST DUP1 PUSH1 0x1 PUSH1 0x0 PUSH2 0x100 EXP DUP2 SLOAD DUP2 PUSH20 0xFFFFFFFFFFFFFFFFFFFFFFFFFFFFFFFFFFFFFFFF MUL NOT AND SWAP1 DUP4 PUSH20 0xFFFFFFFFFFFFFFFFFFFFFFFFFFFFFFFFFFFFFFFF AND MUL OR SWAP1 SSTORE POP POP JUMP JUMPDEST PUSH1 0x0 DUP1 DUP3 PUSH20 0xFFFFFFFFFFFFFFFFFFFFFFFFFFFFFFFFFFFFFFFF AND PUSH4 0x18160DDD PUSH1 0x40 MLOAD DUP2 PUSH4 0xFFFFFFFF AND PUSH1 0xE0 SHL DUP2 MSTORE PUSH1 0x4 ADD PUSH1 0x20 PUSH1 0x40 MLOAD DUP1 DUP4 SUB DUP2 DUP7 DUP1 EXTCODESIZE ISZERO DUP1 ISZERO PUSH2 0xE35 JUMPI PUSH1 0x0 DUP1 REVERT JUMPDEST POP GAS STATICCALL ISZERO DUP1 ISZERO PUSH2 0xE49 JUMPI RETURNDATASIZE PUSH1 0x0 DUP1 RETURNDATACOPY RETURNDATASIZE PUSH1 0x0 REVERT JUMPDEST POP POP POP POP PUSH1 0x40 MLOAD RETURNDATASIZE PUSH1 0x20 DUP2 LT ISZERO PUSH2 0xE5F JUMPI PUSH1 0x0 DUP1 REVERT JUMPDEST DUP2 ADD SWAP1 DUP1 DUP1 MLOAD SWAP1 PUSH1 0x20 ADD SWAP1 SWAP3 SWAP2 SWAP1 POP POP POP SWAP1 POP PUSH1 0x0 DUP1 DUP5 PUSH20 0xFFFFFFFFFFFFFFFFFFFFFFFFFFFFFFFFFFFFFFFF AND PUSH4 0x902F1AC PUSH1 0x40 MLOAD DUP2 PUSH4 0xFFFFFFFF AND PUSH1 0xE0 SHL DUP2 MSTORE PUSH1 0x4 ADD PUSH1 0x60 PUSH1 0x40 MLOAD DUP1 DUP4 SUB DUP2 DUP7 DUP1 EXTCODESIZE ISZERO DUP1 ISZERO PUSH2 0xEBB JUMPI PUSH1 0x0 DUP1 REVERT JUMPDEST POP GAS STATICCALL ISZERO DUP1 ISZERO PUSH2 0xECF JUMPI RETURNDATASIZE PUSH1 0x0 DUP1 RETURNDATACOPY RETURNDATASIZE PUSH1 0x0 REVERT JUMPDEST POP POP POP POP PUSH1 0x40 MLOAD RETURNDATASIZE PUSH1 0x60 DUP2 LT ISZERO PUSH2 0xEE5 JUMPI PUSH1 0x0 DUP1 REVERT JUMPDEST DUP2 ADD SWAP1 DUP1 DUP1 MLOAD SWAP1 PUSH1 0x20 ADD SWAP1 SWAP3 SWAP2 SWAP1 DUP1 MLOAD SWAP1 PUSH1 0x20 ADD SWAP1 SWAP3 SWAP2 SWAP1 DUP1 MLOAD SWAP1 PUSH1 0x20 ADD SWAP1 SWAP3 SWAP2 SWAP1 POP POP POP POP PUSH14 0xFFFFFFFFFFFFFFFFFFFFFFFFFFFF AND SWAP2 POP PUSH14 0xFFFFFFFFFFFFFFFFFFFFFFFFFFFF AND SWAP2 POP PUSH1 0x0 PUSH2 0xF5E DUP5 PUSH2 0xF50 PUSH2 0xF4B DUP6 DUP8 PUSH2 0x1505 SWAP1 SWAP2 SWAP1 PUSH4 0xFFFFFFFF AND JUMP JUMPDEST PUSH2 0x158B JUMP JUMPDEST PUSH2 0x1708 SWAP1 SWAP2 SWAP1 PUSH4 0xFFFFFFFF AND JUMP JUMPDEST SWAP1 POP PUSH1 0x0 PUSH1 0x1 PUSH1 0x0 SWAP1 SLOAD SWAP1 PUSH2 0x100 EXP SWAP1 DIV PUSH20 0xFFFFFFFFFFFFFFFFFFFFFFFFFFFFFFFFFFFFFFFF AND PUSH20 0xFFFFFFFFFFFFFFFFFFFFFFFFFFFFFFFFFFFFFFFF AND PUSH4 0x85F8C259 PUSH1 0x3 SLOAD DUP7 DUP7 PUSH1 0x40 MLOAD DUP5 PUSH4 0xFFFFFFFF AND PUSH1 0xE0 SHL DUP2 MSTORE PUSH1 0x4 ADD DUP1 DUP5 DUP2 MSTORE PUSH1 0x20 ADD DUP4 DUP2 MSTORE PUSH1 0x20 ADD DUP3 DUP2 MSTORE PUSH1 0x20 ADD SWAP4 POP POP POP POP PUSH1 0x20 PUSH1 0x40 MLOAD DUP1 DUP4 SUB DUP2 DUP7 DUP1 EXTCODESIZE ISZERO DUP1 ISZERO PUSH2 0xFE7 JUMPI PUSH1 0x0 DUP1 REVERT JUMPDEST POP GAS STATICCALL ISZERO DUP1 ISZERO PUSH2 0xFFB JUMPI RETURNDATASIZE PUSH1 0x0 DUP1 RETURNDATACOPY RETURNDATASIZE PUSH1 0x0 REVERT JUMPDEST POP POP POP POP PUSH1 0x40 MLOAD RETURNDATASIZE PUSH1 0x20 DUP2 LT ISZERO PUSH2 0x1011 JUMPI PUSH1 0x0 DUP1 REVERT JUMPDEST DUP2 ADD SWAP1 DUP1 DUP1 MLOAD SWAP1 PUSH1 0x20 ADD SWAP1 SWAP3 SWAP2 SWAP1 POP POP POP SWAP1 POP PUSH1 0x0 PUSH1 0x3 SLOAD SWAP1 POP PUSH1 0x0 PUSH2 0x10A9 PUSH8 0x100000000000000 PUSH2 0x109B PUSH2 0x1045 DUP6 PUSH2 0x158B JUMP JUMPDEST PUSH2 0x108D PUSH8 0x100000000000000 PUSH2 0x107F PUSH2 0x105D DUP11 PUSH2 0x158B JUMP JUMPDEST PUSH2 0x1071 PUSH1 0x2 DUP14 PUSH2 0x1505 SWAP1 SWAP2 SWAP1 PUSH4 0xFFFFFFFF AND JUMP JUMPDEST PUSH2 0x1505 SWAP1 SWAP2 SWAP1 PUSH4 0xFFFFFFFF AND JUMP JUMPDEST PUSH2 0x173D SWAP1 SWAP2 SWAP1 PUSH4 0xFFFFFFFF AND JUMP JUMPDEST PUSH2 0x1505 SWAP1 SWAP2 SWAP1 PUSH4 0xFFFFFFFF AND JUMP JUMPDEST PUSH2 0x173D SWAP1 SWAP2 SWAP1 PUSH4 0xFFFFFFFF AND JUMP JUMPDEST SWAP1 POP PUSH1 0x0 PUSH1 0x5 SLOAD PUSH1 0xA EXP DUP3 DUP2 PUSH2 0x10BB JUMPI INVALID JUMPDEST DIV SWAP1 POP DUP1 SWAP9 POP POP POP POP POP POP POP POP POP SWAP2 SWAP1 POP JUMP JUMPDEST PUSH1 0x1 PUSH1 0x0 SWAP1 SLOAD SWAP1 PUSH2 0x100 EXP SWAP1 DIV PUSH20 0xFFFFFFFFFFFFFFFFFFFFFFFFFFFFFFFFFFFFFFFF AND DUP2 JUMP JUMPDEST PUSH1 0x4 SLOAD DUP2 JUMP JUMPDEST PUSH1 0x0 DUP1 PUSH1 0x0 DUP4 PUSH20 0xFFFFFFFFFFFFFFFFFFFFFFFFFFFFFFFFFFFFFFFF AND PUSH4 0x902F1AC PUSH1 0x40 MLOAD DUP2 PUSH4 0xFFFFFFFF AND PUSH1 0xE0 SHL DUP2 MSTORE PUSH1 0x4 ADD PUSH1 0x60 PUSH1 0x40 MLOAD DUP1 DUP4 SUB DUP2 DUP7 DUP1 EXTCODESIZE ISZERO DUP1 ISZERO PUSH2 0x1145 JUMPI PUSH1 0x0 DUP1 REVERT JUMPDEST POP GAS STATICCALL ISZERO DUP1 ISZERO PUSH2 0x1159 JUMPI RETURNDATASIZE PUSH1 0x0 DUP1 RETURNDATACOPY RETURNDATASIZE PUSH1 0x0 REVERT JUMPDEST POP POP POP POP PUSH1 0x40 MLOAD RETURNDATASIZE PUSH1 0x60 DUP2 LT ISZERO PUSH2 0x116F JUMPI PUSH1 0x0 DUP1 REVERT JUMPDEST DUP2 ADD SWAP1 DUP1 DUP1 MLOAD SWAP1 PUSH1 0x20 ADD SWAP1 SWAP3 SWAP2 SWAP1 DUP1 MLOAD SWAP1 PUSH1 0x20 ADD SWAP1 SWAP3 SWAP2 SWAP1 DUP1 MLOAD SWAP1 PUSH1 0x20 ADD SWAP1 SWAP3 SWAP2 SWAP1 POP POP POP POP PUSH14 0xFFFFFFFFFFFFFFFFFFFFFFFFFFFF AND SWAP2 POP PUSH14 0xFFFFFFFFFFFFFFFFFFFFFFFFFFFF AND SWAP2 POP PUSH1 0x0 PUSH1 0x1 PUSH1 0x0 SWAP1 SLOAD SWAP1 PUSH2 0x100 EXP SWAP1 DIV PUSH20 0xFFFFFFFFFFFFFFFFFFFFFFFFFFFFFFFFFFFFFFFF AND PUSH20 0xFFFFFFFFFFFFFFFFFFFFFFFFFFFFFFFFFFFFFFFF AND PUSH4 0x85F8C259 PUSH1 0x3 SLOAD DUP6 DUP6 PUSH1 0x40 MLOAD DUP5 PUSH4 0xFFFFFFFF AND PUSH1 0xE0 SHL DUP2 MSTORE PUSH1 0x4 ADD DUP1 DUP5 DUP2 MSTORE PUSH1 0x20 ADD DUP4 DUP2 MSTORE PUSH1 0x20 ADD DUP3 DUP2 MSTORE PUSH1 0x20 ADD SWAP4 POP POP POP POP PUSH1 0x20 PUSH1 0x40 MLOAD DUP1 DUP4 SUB DUP2 DUP7 DUP1 EXTCODESIZE ISZERO DUP1 ISZERO PUSH2 0x1240 JUMPI PUSH1 0x0 DUP1 REVERT JUMPDEST POP GAS STATICCALL ISZERO DUP1 ISZERO PUSH2 0x1254 JUMPI RETURNDATASIZE PUSH1 0x0 DUP1 RETURNDATACOPY RETURNDATASIZE PUSH1 0x0 REVERT JUMPDEST POP POP POP POP PUSH1 0x40 MLOAD RETURNDATASIZE PUSH1 0x20 DUP2 LT ISZERO PUSH2 0x126A JUMPI PUSH1 0x0 DUP1 REVERT JUMPDEST DUP2 ADD SWAP1 DUP1 DUP1 MLOAD SWAP1 PUSH1 0x20 ADD SWAP1 SWAP3 SWAP2 SWAP1 POP POP POP SWAP1 POP DUP1 SWAP4 POP POP POP POP SWAP2 SWAP1 POP JUMP JUMPDEST PUSH1 0x3 SLOAD DUP2 JUMP JUMPDEST CALLER PUSH20 0xFFFFFFFFFFFFFFFFFFFFFFFFFFFFFFFFFFFFFFFF AND PUSH1 0x0 DUP1 SLOAD SWAP1 PUSH2 0x100 EXP SWAP1 DIV PUSH20 0xFFFFFFFFFFFFFFFFFFFFFFFFFFFFFFFFFFFFFFFF AND PUSH20 0xFFFFFFFFFFFFFFFFFFFFFFFFFFFFFFFFFFFFFFFF AND EQ DUP1 PUSH2 0x1333 JUMPI POP CALLER PUSH20 0xFFFFFFFFFFFFFFFFFFFFFFFFFFFFFFFFFFFFFFFF AND PUSH1 0x0 DUP1 SLOAD SWAP1 PUSH2 0x100 EXP SWAP1 DIV PUSH20 0xFFFFFFFFFFFFFFFFFFFFFFFFFFFFFFFFFFFFFFFF AND PUSH20 0xFFFFFFFFFFFFFFFFFFFFFFFFFFFFFFFFFFFFFFFF AND EQ JUMPDEST PUSH2 0x13A5 JUMPI PUSH1 0x40 MLOAD PUSH32 0x8C379A000000000000000000000000000000000000000000000000000000000 DUP2 MSTORE PUSH1 0x4 ADD DUP1 DUP1 PUSH1 0x20 ADD DUP3 DUP2 SUB DUP3 MSTORE PUSH1 0x6 DUP2 MSTORE PUSH1 0x20 ADD DUP1 PUSH32 0x216F776E65720000000000000000000000000000000000000000000000000000 DUP2 MSTORE POP PUSH1 0x20 ADD SWAP2 POP POP PUSH1 0x40 MLOAD DUP1 SWAP2 SUB SWAP1 REVERT JUMPDEST PUSH1 0x0 PUSH20 0xFFFFFFFFFFFFFFFFFFFFFFFFFFFFFFFFFFFFFFFF AND DUP2 PUSH20 0xFFFFFFFFFFFFFFFFFFFFFFFFFFFFFFFFFFFFFFFF AND EQ ISZERO PUSH2 0x1448 JUMPI PUSH1 0x40 MLOAD PUSH32 0x8C379A000000000000000000000000000000000000000000000000000000000 DUP2 MSTORE PUSH1 0x4 ADD DUP1 DUP1 PUSH1 0x20 ADD DUP3 DUP2 SUB DUP3 MSTORE PUSH1 0x8 DUP2 MSTORE PUSH1 0x20 ADD DUP1 PUSH32 0x6E65772069732030000000000000000000000000000000000000000000000000 DUP2 MSTORE POP PUSH1 0x20 ADD SWAP2 POP POP PUSH1 0x40 MLOAD DUP1 SWAP2 SUB SWAP1 REVERT JUMPDEST DUP1 PUSH20 0xFFFFFFFFFFFFFFFFFFFFFFFFFFFFFFFFFFFFFFFF AND PUSH1 0x0 DUP1 SLOAD SWAP1 PUSH2 0x100 EXP SWAP1 DIV PUSH20 0xFFFFFFFFFFFFFFFFFFFFFFFFFFFFFFFFFFFFFFFF AND PUSH20 0xFFFFFFFFFFFFFFFFFFFFFFFFFFFFFFFFFFFFFFFF AND PUSH32 0x8BE0079C531659141344CD1FD0A4F28419497F9722A3DAAFE3B4186F6B6457E0 PUSH1 0x40 MLOAD PUSH1 0x40 MLOAD DUP1 SWAP2 SUB SWAP1 LOG3 DUP1 PUSH1 0x0 DUP1 PUSH2 0x100 EXP DUP2 SLOAD DUP2 PUSH20 0xFFFFFFFFFFFFFFFFFFFFFFFFFFFFFFFFFFFFFFFF MUL NOT AND SWAP1 DUP4 PUSH20 0xFFFFFFFFFFFFFFFFFFFFFFFFFFFFFFFFFFFFFFFF AND MUL OR SWAP1 SSTORE POP POP JUMP JUMPDEST PUSH1 0x0 DUP1 DUP4 EQ ISZERO PUSH2 0x1518 JUMPI PUSH1 0x0 SWAP1 POP PUSH2 0x1585 JUMP JUMPDEST PUSH1 0x0 DUP3 DUP5 MUL SWAP1 POP DUP3 DUP5 DUP3 DUP2 PUSH2 0x1529 JUMPI INVALID JUMPDEST DIV EQ PUSH2 0x1580 JUMPI PUSH1 0x40 MLOAD PUSH32 0x8C379A000000000000000000000000000000000000000000000000000000000 DUP2 MSTORE PUSH1 0x4 ADD DUP1 DUP1 PUSH1 0x20 ADD DUP3 DUP2 SUB DUP3 MSTORE PUSH1 0x21 DUP2 MSTORE PUSH1 0x20 ADD DUP1 PUSH2 0x17C7 PUSH1 0x21 SWAP2 CODECOPY PUSH1 0x40 ADD SWAP2 POP POP PUSH1 0x40 MLOAD DUP1 SWAP2 SUB SWAP1 REVERT JUMPDEST DUP1 SWAP2 POP POP JUMPDEST SWAP3 SWAP2 POP POP JUMP JUMPDEST PUSH1 0x0 DUP1 DUP3 EQ ISZERO PUSH2 0x159E JUMPI PUSH1 0x0 SWAP1 POP PUSH2 0x1703 JUMP JUMPDEST PUSH1 0x0 DUP3 SWAP1 POP PUSH1 0x0 PUSH1 0x1 SWAP1 POP PUSH17 0x100000000000000000000000000000000 DUP3 LT PUSH2 0x15D0 JUMPI PUSH1 0x80 DUP3 SWAP1 SHR SWAP2 POP PUSH1 0x40 DUP2 SWAP1 SHL SWAP1 POP JUMPDEST PUSH9 0x10000000000000000 DUP3 LT PUSH2 0x15EF JUMPI PUSH1 0x40 DUP3 SWAP1 SHR SWAP2 POP PUSH1 0x20 DUP2 SWAP1 SHL SWAP1 POP JUMPDEST PUSH5 0x100000000 DUP3 LT PUSH2 0x160A JUMPI PUSH1 0x20 DUP3 SWAP1 SHR SWAP2 POP PUSH1 0x10 DUP2 SWAP1 SHL SWAP1 POP JUMPDEST PUSH3 0x10000 DUP3 LT PUSH2 0x1623 JUMPI PUSH1 0x10 DUP3 SWAP1 SHR SWAP2 POP PUSH1 0x8 DUP2 SWAP1 SHL SWAP1 POP JUMPDEST PUSH2 0x100 DUP3 LT PUSH2 0x163B JUMPI PUSH1 0x8 DUP3 SWAP1 SHR SWAP2 POP PUSH1 0x4 DUP2 SWAP1 SHL SWAP1 POP JUMPDEST PUSH1 0x10 DUP3 LT PUSH2 0x1652 JUMPI PUSH1 0x4 DUP3 SWAP1 SHR SWAP2 POP PUSH1 0x2 DUP2 SWAP1 SHL SWAP1 POP JUMPDEST PUSH1 0x8 DUP3 LT PUSH2 0x1662 JUMPI PUSH1 0x1 DUP2 SWAP1 SHL SWAP1 POP JUMPDEST PUSH1 0x1 DUP2 DUP6 DUP2 PUSH2 0x166D JUMPI INVALID JUMPDEST DIV DUP3 ADD SWAP1 SHR SWAP1 POP PUSH1 0x1 DUP2 DUP6 DUP2 PUSH2 0x167F JUMPI INVALID JUMPDEST DIV DUP3 ADD SWAP1 SHR SWAP1 POP PUSH1 0x1 DUP2 DUP6 DUP2 PUSH2 0x1691 JUMPI INVALID JUMPDEST DIV DUP3 ADD SWAP1 SHR SWAP1 POP PUSH1 0x1 DUP2 DUP6 DUP2 PUSH2 0x16A3 JUMPI INVALID JUMPDEST DIV DUP3 ADD SWAP1 SHR SWAP1 POP PUSH1 0x1 DUP2 DUP6 DUP2 PUSH2 0x16B5 JUMPI INVALID JUMPDEST DIV DUP3 ADD SWAP1 SHR SWAP1 POP PUSH1 0x1 DUP2 DUP6 DUP2 PUSH2 0x16C7 JUMPI INVALID JUMPDEST DIV DUP3 ADD SWAP1 SHR SWAP1 POP PUSH1 0x1 DUP2 DUP6 DUP2 PUSH2 0x16D9 JUMPI INVALID JUMPDEST DIV DUP3 ADD SWAP1 SHR SWAP1 POP PUSH1 0x0 DUP2 DUP6 DUP2 PUSH2 0x16EB JUMPI INVALID JUMPDEST DIV SWAP1 POP DUP1 DUP3 LT PUSH2 0x16FB JUMPI DUP1 PUSH2 0x16FD JUMP JUMPDEST DUP2 JUMPDEST SWAP4 POP POP POP POP JUMPDEST SWAP2 SWAP1 POP JUMP JUMPDEST PUSH1 0x0 DUP2 PUSH2 0x172D PUSH15 0x10000000000000000000000000000 DUP6 PUSH2 0x1505 SWAP1 SWAP2 SWAP1 PUSH4 0xFFFFFFFF AND JUMP JUMPDEST DUP2 PUSH2 0x1734 JUMPI INVALID JUMPDEST DIV SWAP1 POP SWAP3 SWAP2 POP POP JUMP JUMPDEST PUSH1 0x0 DUP1 DUP3 GT PUSH2 0x17B4 JUMPI PUSH1 0x40 MLOAD PUSH32 0x8C379A000000000000000000000000000000000000000000000000000000000 DUP2 MSTORE PUSH1 0x4 ADD DUP1 DUP1 PUSH1 0x20 ADD DUP3 DUP2 SUB DUP3 MSTORE PUSH1 0x1A DUP2 MSTORE PUSH1 0x20 ADD DUP1 PUSH32 0x536166654D6174683A206469766973696F6E206279207A65726F000000000000 DUP2 MSTORE POP PUSH1 0x20 ADD SWAP2 POP POP PUSH1 0x40 MLOAD DUP1 SWAP2 SUB SWAP1 REVERT JUMPDEST DUP2 DUP4 DUP2 PUSH2 0x17BD JUMPI INVALID JUMPDEST DIV SWAP1 POP SWAP3 SWAP2 POP POP JUMP INVALID MSTORE8 PUSH2 0x6665 0x4D PUSH2 0x7468 GASPRICE KECCAK256 PUSH14 0x756C7469706C69636174696F6E20 PUSH16 0x766572666C6F77A26469706673582212 KECCAK256 DUP14 0xA8 DIFFICULTY 0xD7 0xD4 PUSH4 0x80FD2F92 PUSH28 0xA2DF86CFF208812C57CA83A09F9EAB5A9CC11B275364736F6C634300 MOD 0xC STOP CALLER "
				},
				"gasEstimates": {
					"creation": {
						"codeDepositCost": "1234600",
						"executionCost": "125457",
						"totalCost": "1360057"
					},
					"external": {
						"_LP_ymiiUsdt()": "1092",
						"_mathRight1()": "3510",
						"_pancakeRouter()": "1136",
						"getETHPx(address)": "infinite",
						"getTokenPrice(address)": "infinite",
						"lpPrice()": "infinite",
						"owner()": "1122",
						"set_LP_ymiiUsdt(address)": "22863",
						"set_pancakeRouter(address)": "22885",
						"set_t_amount(uint256)": "22071",
						"set_t_wei(uint256)": "22070",
						"set_usdtPrice(uint256)": "22004",
						"t_amount()": "1027",
						"t_wei()": "1073",
						"transferOwnership(address)": "25344",
						"usdtPrice()": "1071"
					}
				},
				"methodIdentifiers": {
					"_LP_ymiiUsdt()": "6276e479",
					"_mathRight1()": "22a25421",
					"_pancakeRouter()": "ba6f43e6",
					"getETHPx(address)": "ab9aadfe",
					"getTokenPrice(address)": "d02641a0",
					"lpPrice()": "0c280444",
					"owner()": "8da5cb5b",
					"set_LP_ymiiUsdt(address)": "55a1ace8",
					"set_pancakeRouter(address)": "94217ebc",
					"set_t_amount(uint256)": "4e702769",
					"set_t_wei(uint256)": "8f075e7f",
					"set_usdtPrice(uint256)": "937b1d24",
					"t_amount()": "c0019e23",
					"t_wei()": "4251f8ba",
					"transferOwnership(address)": "f2fde38b",
					"usdtPrice()": "e136f65f"
				}
			},
			"storageLayout": {
				"storage": [
					{
						"astId": 908,
						"contract": "contracts/oracle/UniswapV2Oracle_pancake.sol:UniswapV2Oracle",
						"label": "_owner",
						"offset": 0,
						"slot": "0",
						"type": "t_address"
					},
					{
						"astId": 999,
						"contract": "contracts/oracle/UniswapV2Oracle_pancake.sol:UniswapV2Oracle",
						"label": "_pancakeRouter",
						"offset": 0,
						"slot": "1",
						"type": "t_address"
					},
					{
						"astId": 1002,
						"contract": "contracts/oracle/UniswapV2Oracle_pancake.sol:UniswapV2Oracle",
						"label": "_LP_ymiiUsdt",
						"offset": 0,
						"slot": "2",
						"type": "t_address"
					},
					{
						"astId": 1005,
						"contract": "contracts/oracle/UniswapV2Oracle_pancake.sol:UniswapV2Oracle",
						"label": "usdtPrice",
						"offset": 0,
						"slot": "3",
						"type": "t_uint256"
					},
					{
						"astId": 1170,
						"contract": "contracts/oracle/UniswapV2Oracle_pancake.sol:UniswapV2Oracle",
						"label": "t_amount",
						"offset": 0,
						"slot": "4",
						"type": "t_uint256"
					},
					{
						"astId": 1185,
						"contract": "contracts/oracle/UniswapV2Oracle_pancake.sol:UniswapV2Oracle",
						"label": "t_wei",
						"offset": 0,
						"slot": "5",
						"type": "t_uint256"
					}
				],
				"types": {
					"t_address": {
						"encoding": "inplace",
						"label": "address",
						"numberOfBytes": "20"
					},
					"t_uint256": {
						"encoding": "inplace",
						"label": "uint256",
						"numberOfBytes": "32"
					}
				}
			},
			"userdoc": {
				"kind": "user",
				"methods": {
					"getETHPx(address)": {
						"notice": "得到完整 LP price"
					}
				},
				"version": 1
			}
		}
	}
}